{
  "contractName": "Player",
  "abi": [
    {
      "inputs": [
        {
          "internalType": "string",
          "name": "_name",
          "type": "string"
        },
        {
          "internalType": "string",
          "name": "_position",
          "type": "string"
        },
        {
          "internalType": "uint256",
          "name": "_price",
          "type": "uint256"
        }
      ],
      "stateMutability": "nonpayable",
      "type": "constructor"
    },
    {
      "anonymous": false,
      "inputs": [
        {
          "indexed": false,
          "internalType": "uint256",
          "name": "rate",
          "type": "uint256"
        }
      ],
      "name": "RateAdded",
      "type": "event"
    },
    {
      "inputs": [],
      "name": "getMarketPrice",
      "outputs": [
        {
          "internalType": "uint256",
          "name": "",
          "type": "uint256"
        }
      ],
      "stateMutability": "view",
      "type": "function"
    },
    {
      "inputs": [],
      "name": "getName",
      "outputs": [
        {
          "internalType": "string",
          "name": "",
          "type": "string"
        }
      ],
      "stateMutability": "view",
      "type": "function"
    },
    {
      "inputs": [
        {
          "internalType": "uint256",
          "name": "newRate",
          "type": "uint256"
        }
      ],
      "name": "addNewRate",
      "outputs": [],
      "stateMutability": "nonpayable",
      "type": "function"
    },
    {
      "inputs": [],
      "name": "getAverageRating",
      "outputs": [
        {
          "internalType": "uint256",
          "name": "",
          "type": "uint256"
        }
      ],
      "stateMutability": "view",
      "type": "function"
    },
    {
      "inputs": [],
      "name": "getRatings",
      "outputs": [
        {
          "internalType": "uint256[]",
          "name": "",
          "type": "uint256[]"
        }
      ],
      "stateMutability": "view",
      "type": "function"
    },
    {
      "inputs": [],
      "name": "calculateAverageRate",
      "outputs": [],
      "stateMutability": "nonpayable",
      "type": "function"
    }
  ],
  "bytecode": "0x60806040523480156200001157600080fd5b5060405162000cd838038062000cd8833981810160405281019062000037919062000239565b826000908162000048919062000514565b5081600190816200005a919062000514565b5080600481905550505050620005fb565b6000604051905090565b600080fd5b600080fd5b600080fd5b600080fd5b6000601f19601f8301169050919050565b7f4e487b7100000000000000000000000000000000000000000000000000000000600052604160045260246000fd5b620000d48262000089565b810181811067ffffffffffffffff82111715620000f657620000f56200009a565b5b80604052505050565b60006200010b6200006b565b9050620001198282620000c9565b919050565b600067ffffffffffffffff8211156200013c576200013b6200009a565b5b620001478262000089565b9050602081019050919050565b60005b838110156200017457808201518184015260208101905062000157565b60008484015250505050565b60006200019762000191846200011e565b620000ff565b905082815260208101848484011115620001b657620001b562000084565b5b620001c384828562000154565b509392505050565b600082601f830112620001e357620001e26200007f565b5b8151620001f584826020860162000180565b91505092915050565b6000819050919050565b6200021381620001fe565b81146200021f57600080fd5b50565b600081519050620002338162000208565b92915050565b60008060006060848603121562000255576200025462000075565b5b600084015167ffffffffffffffff8111156200027657620002756200007a565b5b6200028486828701620001cb565b935050602084015167ffffffffffffffff811115620002a857620002a76200007a565b5b620002b686828701620001cb565b9250506040620002c98682870162000222565b9150509250925092565b600081519050919050565b7f4e487b7100000000000000000000000000000000000000000000000000000000600052602260045260246000fd5b600060028204905060018216806200032657607f821691505b6020821081036200033c576200033b620002de565b5b50919050565b60008190508160005260206000209050919050565b60006020601f8301049050919050565b600082821b905092915050565b600060088302620003a67fffffffffffffffffffffffffffffffffffffffffffffffffffffffffffffffff8262000367565b620003b2868362000367565b95508019841693508086168417925050509392505050565b6000819050919050565b6000620003f5620003ef620003e984620001fe565b620003ca565b620001fe565b9050919050565b6000819050919050565b6200041183620003d4565b620004296200042082620003fc565b84845462000374565b825550505050565b600090565b6200044062000431565b6200044d81848462000406565b505050565b5b8181101562000475576200046960008262000436565b60018101905062000453565b5050565b601f821115620004c4576200048e8162000342565b620004998462000357565b81016020851015620004a9578190505b620004c1620004b88562000357565b83018262000452565b50505b505050565b600082821c905092915050565b6000620004e960001984600802620004c9565b1980831691505092915050565b6000620005048383620004d6565b9150826002028217905092915050565b6200051f82620002d3565b67ffffffffffffffff8111156200053b576200053a6200009a565b5b6200054782546200030d565b6200055482828562000479565b600060209050601f8311600181146200058c576000841562000577578287015190505b620005838582620004f6565b865550620005f3565b601f1984166200059c8662000342565b60005b82811015620005c6578489015182556001820191506020850194506020810190506200059f565b86831015620005e65784890151620005e2601f891682620004d6565b8355505b6001600288020188555050505b505050505050565b6106cd806200060b6000396000f3fe608060405234801561001057600080fd5b50600436106100625760003560e01c806317d7de7c14610067578063660e16c3146100855780636ef1f2b5146100a357806370f6e4cf146100bf5780638cbdd6bd146100dd5780639f934c70146100fb575b600080fd5b61006f610105565b60405161007c9190610369565b60405180910390f35b61008d610197565b60405161009a91906103a4565b60405180910390f35b6100bd60048036038101906100b891906103f0565b6101a1565b005b6100c761020c565b6040516100d491906103a4565b60405180910390f35b6100e5610216565b6040516100f291906104db565b60405180910390f35b61010361026e565b005b6060600080546101149061052c565b80601f01602080910402602001604051908101604052809291908181526020018280546101409061052c565b801561018d5780601f106101625761010080835404028352916020019161018d565b820191906000526020600020905b81548152906001019060200180831161017057829003601f168201915b5050505050905090565b6000600454905090565b60028190806001815401808255809150506001900390600052602060002001600090919091909150556101d261026e565b7f0bd230340c351eece29a60e9c887f5d316a044b08a11e41b51b9d8d2252ceb628160405161020191906103a4565b60405180910390a150565b6000600354905090565b6060600280548060200260200160405190810160405280929190818152602001828054801561026457602002820191906000526020600020905b815481526020019060010190808311610250575b5050505050905090565b6000805b6002805490508110156102be57600281815481106102935761029261055d565b5b9060005260206000200154826102a991906105bb565b915080806102b6906105ef565b915050610272565b50600280549050816102d09190610666565b60038190555050565b600081519050919050565b600082825260208201905092915050565b60005b838110156103135780820151818401526020810190506102f8565b60008484015250505050565b6000601f19601f8301169050919050565b600061033b826102d9565b61034581856102e4565b93506103558185602086016102f5565b61035e8161031f565b840191505092915050565b600060208201905081810360008301526103838184610330565b905092915050565b6000819050919050565b61039e8161038b565b82525050565b60006020820190506103b96000830184610395565b92915050565b600080fd5b6103cd8161038b565b81146103d857600080fd5b50565b6000813590506103ea816103c4565b92915050565b600060208284031215610406576104056103bf565b5b6000610414848285016103db565b91505092915050565b600081519050919050565b600082825260208201905092915050565b6000819050602082019050919050565b6104528161038b565b82525050565b60006104648383610449565b60208301905092915050565b6000602082019050919050565b60006104888261041d565b6104928185610428565b935061049d83610439565b8060005b838110156104ce5781516104b58882610458565b97506104c083610470565b9250506001810190506104a1565b5085935050505092915050565b600060208201905081810360008301526104f5818461047d565b905092915050565b7f4e487b7100000000000000000000000000000000000000000000000000000000600052602260045260246000fd5b6000600282049050600182168061054457607f821691505b602082108103610557576105566104fd565b5b50919050565b7f4e487b7100000000000000000000000000000000000000000000000000000000600052603260045260246000fd5b7f4e487b7100000000000000000000000000000000000000000000000000000000600052601160045260246000fd5b60006105c68261038b565b91506105d18361038b565b92508282019050808211156105e9576105e861058c565b5b92915050565b60006105fa8261038b565b91507fffffffffffffffffffffffffffffffffffffffffffffffffffffffffffffffff820361062c5761062b61058c565b5b600182019050919050565b7f4e487b7100000000000000000000000000000000000000000000000000000000600052601260045260246000fd5b60006106718261038b565b915061067c8361038b565b92508261068c5761068b610637565b5b82820490509291505056fea26469706673582212200e565ba6863e73dd16dd2d9061d825362ca286e98eb8fd4d876fc01165a8291e64736f6c63430008110033",
  "immutableReferences": {},
  "source": "// SPDX-License-Identifier: MIT\npragma solidity ^0.8.17;\n\ncontract Player {\n    string private name;\n    string private position;\n    uint256[] private ratings;\n    uint256 private averageRating;\n    uint256 private price;\n\n    event RateAdded(uint256 rate);\n\n    constructor(\n        string memory _name,\n        string memory _position,\n        uint256 _price\n    ) {\n        name = _name;\n        position = _position;\n        price = _price;\n    }\n\n    //Funcion getter del price, que se encuentra en una VAR global PRIVATE;\n    function getMarketPrice() public view returns (uint256) {\n        return price;\n    }\n\n    //Funcion getter del nombre del jugador\n    function getName() public view returns (string memory) {\n        return name;\n    }\n\n    //Se agrega un nuevo Rate al ratings[] y se emite un evento para ver el newRate agregado\n    function addNewRate(uint256 newRate) public {\n        ratings.push(newRate);\n        calculateAverageRate();\n        emit RateAdded(newRate);\n    }\n\n    //Una funcion que retorna el valor del averageRating (que se encuentra en una VAR global privada)\n    function getAverageRating() public view returns (uint256) {\n        return averageRating;\n    }\n\n    //Una funcion get para interactuar de afuera y ver los ratings del array, con una funcion public\n    function getRatings() public view returns (uint256[] memory) {\n        return ratings;\n    }\n\n    //Otra manera de hacerlo es con una VAR de estado que sea el counter/acumulador (suma de todos los rates)\n    function calculateAverageRate() public {\n        uint256 amount = 0;\n        for (uint256 i = 0; i < ratings.length; i++) {\n            amount += ratings[i];\n        }\n        averageRating = amount / ratings.length;\n        //este resultado al guardarse en una VAR global, no necesitamos retornar nada\n    }\n}\n",
  "sourcePath": "D:\\CODER Programacion\\2022\\Solidity\\footballTeam\\contracts\\Player.sol",
  "compiler": {
    "name": "solc",
    "version": "0.8.17+commit.8df45f5f.Emscripten.clang"
  },
  "schemaVersion": "3.4.10",
  "updatedAt": "2022-11-17T23:04:54.858Z",
  "devdoc": {
    "kind": "dev",
    "methods": {},
    "version": 1
  },
  "userdoc": {
    "kind": "user",
    "methods": {},
    "version": 1
  }
}