{
  "contractName": "Squad",
  "abi": [
    {
      "inputs": [
        {
          "internalType": "string",
          "name": "_name",
          "type": "string"
        }
      ],
      "stateMutability": "nonpayable",
      "type": "constructor"
    },
    {
      "anonymous": false,
      "inputs": [
        {
          "indexed": false,
          "internalType": "uint256",
          "name": "amount",
          "type": "uint256"
        }
      ],
      "name": "FundsReceived",
      "type": "event"
    },
    {
      "anonymous": false,
      "inputs": [
        {
          "indexed": true,
          "internalType": "address",
          "name": "previousOwner",
          "type": "address"
        },
        {
          "indexed": true,
          "internalType": "address",
          "name": "newOwner",
          "type": "address"
        }
      ],
      "name": "OwnershipTransferred",
      "type": "event"
    },
    {
      "anonymous": false,
      "inputs": [
        {
          "indexed": false,
          "internalType": "uint256",
          "name": "price",
          "type": "uint256"
        }
      ],
      "name": "PlayerAcquired",
      "type": "event"
    },
    {
      "stateMutability": "payable",
      "type": "fallback",
      "payable": true
    },
    {
      "inputs": [],
      "name": "owner",
      "outputs": [
        {
          "internalType": "address",
          "name": "",
          "type": "address"
        }
      ],
      "stateMutability": "view",
      "type": "function",
      "constant": true
    },
    {
      "inputs": [],
      "name": "renounceOwnership",
      "outputs": [],
      "stateMutability": "nonpayable",
      "type": "function"
    },
    {
      "inputs": [
        {
          "internalType": "address",
          "name": "newOwner",
          "type": "address"
        }
      ],
      "name": "transferOwnership",
      "outputs": [],
      "stateMutability": "nonpayable",
      "type": "function"
    },
    {
      "stateMutability": "payable",
      "type": "receive",
      "payable": true
    },
    {
      "inputs": [
        {
          "internalType": "string",
          "name": "_name",
          "type": "string"
        },
        {
          "internalType": "string",
          "name": "_position",
          "type": "string"
        },
        {
          "internalType": "uint256",
          "name": "_price",
          "type": "uint256"
        }
      ],
      "name": "addNewPlayer",
      "outputs": [],
      "stateMutability": "nonpayable",
      "type": "function"
    },
    {
      "inputs": [
        {
          "internalType": "address",
          "name": "sellerAddress",
          "type": "address"
        },
        {
          "internalType": "address",
          "name": "newPlayerAddress",
          "type": "address"
        }
      ],
      "name": "buyPlayer",
      "outputs": [],
      "stateMutability": "nonpayable",
      "type": "function"
    },
    {
      "inputs": [],
      "name": "getPlayers",
      "outputs": [
        {
          "internalType": "contract Player[]",
          "name": "",
          "type": "address[]"
        }
      ],
      "stateMutability": "view",
      "type": "function",
      "constant": true
    },
    {
      "inputs": [],
      "name": "getSquadName",
      "outputs": [
        {
          "internalType": "string",
          "name": "",
          "type": "string"
        }
      ],
      "stateMutability": "view",
      "type": "function",
      "constant": true
    },
    {
      "inputs": [],
      "name": "getDreamTeam",
      "outputs": [],
      "stateMutability": "nonpayable",
      "type": "function"
    },
    {
      "inputs": [],
      "name": "sellPlayer",
      "outputs": [],
      "stateMutability": "nonpayable",
      "type": "function"
    }
  ],
  "bytecode": "0x60806040523480156200001157600080fd5b50604051620023fd380380620023fd8339818101604052810190620000379190620002cf565b620000576200004b6200007060201b60201c565b6200007860201b60201c565b80600190816200006891906200056b565b505062000652565b600033905090565b60008060009054906101000a900473ffffffffffffffffffffffffffffffffffffffff169050816000806101000a81548173ffffffffffffffffffffffffffffffffffffffff021916908373ffffffffffffffffffffffffffffffffffffffff1602179055508173ffffffffffffffffffffffffffffffffffffffff168173ffffffffffffffffffffffffffffffffffffffff167f8be0079c531659141344cd1fd0a4f28419497f9722a3daafe3b4186f6b6457e060405160405180910390a35050565b6000604051905090565b600080fd5b600080fd5b600080fd5b600080fd5b6000601f19601f8301169050919050565b7f4e487b7100000000000000000000000000000000000000000000000000000000600052604160045260246000fd5b620001a5826200015a565b810181811067ffffffffffffffff82111715620001c757620001c66200016b565b5b80604052505050565b6000620001dc6200013c565b9050620001ea82826200019a565b919050565b600067ffffffffffffffff8211156200020d576200020c6200016b565b5b62000218826200015a565b9050602081019050919050565b60005b838110156200024557808201518184015260208101905062000228565b60008484015250505050565b6000620002686200026284620001ef565b620001d0565b90508281526020810184848401111562000287576200028662000155565b5b6200029484828562000225565b509392505050565b600082601f830112620002b457620002b362000150565b5b8151620002c684826020860162000251565b91505092915050565b600060208284031215620002e857620002e762000146565b5b600082015167ffffffffffffffff8111156200030957620003086200014b565b5b62000317848285016200029c565b91505092915050565b600081519050919050565b7f4e487b7100000000000000000000000000000000000000000000000000000000600052602260045260246000fd5b600060028204905060018216806200037357607f821691505b6020821081036200038957620003886200032b565b5b50919050565b60008190508160005260206000209050919050565b60006020601f8301049050919050565b600082821b905092915050565b600060088302620003f37fffffffffffffffffffffffffffffffffffffffffffffffffffffffffffffffff82620003b4565b620003ff8683620003b4565b95508019841693508086168417925050509392505050565b6000819050919050565b6000819050919050565b60006200044c62000446620004408462000417565b62000421565b62000417565b9050919050565b6000819050919050565b62000468836200042b565b62000480620004778262000453565b848454620003c1565b825550505050565b600090565b6200049762000488565b620004a48184846200045d565b505050565b5b81811015620004cc57620004c06000826200048d565b600181019050620004aa565b5050565b601f8211156200051b57620004e5816200038f565b620004f084620003a4565b8101602085101562000500578190505b620005186200050f85620003a4565b830182620004a9565b50505b505050565b600082821c905092915050565b6000620005406000198460080262000520565b1980831691505092915050565b60006200055b83836200052d565b9150826002028217905092915050565b620005768262000320565b67ffffffffffffffff8111156200059257620005916200016b565b5b6200059e82546200035a565b620005ab828285620004d0565b600060209050601f831160018114620005e35760008415620005ce578287015190505b620005da85826200054d565b8655506200064a565b601f198416620005f3866200038f565b60005b828110156200061d57848901518255600182019150602085019450602081019050620005f6565b868310156200063d578489015162000639601f8916826200052d565b8355505b6001600288020188555050505b505050505050565b611d9b80620006626000396000f3fe608060405260043610620000975760003560e01c8063cc45ce3e1162000061578063cc45ce3e14620001bd578063d1a2e5d714620001eb578063e1f7de6e1462000205578063f2fde38b1462000233578063f9a8be5c146200026157620000d8565b806320a6bf841462000113578063715018a614620001435780638b5b9ccc146200015d5780638da5cb5b146200018d57620000d8565b36620000d8577fbcdc7071c1beb6dcf2744621e0b29a2f2432ee20812d9ca5e3d5e8f9308d93a334604051620000ce91906200099f565b60405180910390a1005b7fbcdc7071c1beb6dcf2744621e0b29a2f2432ee20812d9ca5e3d5e8f9308d93a3346040516200010991906200099f565b60405180910390a1005b3480156200012057600080fd5b506200012b6200027b565b6040516200013a919062000a56565b60405180910390f35b3480156200015057600080fd5b506200015b62000315565b005b3480156200016a57600080fd5b50620001756200032d565b60405162000184919062000bc2565b60405180910390f35b3480156200019a57600080fd5b50620001a5620003bd565b604051620001b4919062000c0b565b60405180910390f35b348015620001ca57600080fd5b50620001e96004803603810190620001e3919062000c6d565b620003e6565b005b348015620001f857600080fd5b5062000203620006e3565b005b3480156200021257600080fd5b506200023160048036038101906200022b919062000e36565b620006e5565b005b3480156200024057600080fd5b506200025f600480360381019062000259919062000ed0565b62000799565b005b3480156200026e57600080fd5b506200027962000823565b005b6060600180546200028c9062000f31565b80601f0160208091040260200160405190810160405280929190818152602001828054620002ba9062000f31565b80156200030b5780601f10620002df576101008083540402835291602001916200030b565b820191906000526020600020905b815481529060010190602001808311620002ed57829003601f168201915b5050505050905090565b6200031f62000825565b6200032b6000620008aa565b565b60606002805480602002602001604051908101604052809291908181526020018280548015620003b357602002820191906000526020600020905b8160009054906101000a900473ffffffffffffffffffffffffffffffffffffffff1673ffffffffffffffffffffffffffffffffffffffff168152602001906001019080831162000368575b5050505050905090565b60008060009054906101000a900473ffffffffffffffffffffffffffffffffffffffff16905090565b620003f062000825565b60008190508073ffffffffffffffffffffffffffffffffffffffff1663660e16c36040518163ffffffff1660e01b8152600401602060405180830381865afa15801562000441573d6000803e3d6000fd5b505050506040513d601f19601f8201168201806040525081019062000467919062000f7d565b471015620004ac576040517f08c379a0000000000000000000000000000000000000000000000000000000008152600401620004a39062001025565b60405180910390fd5b60008373ffffffffffffffffffffffffffffffffffffffff168273ffffffffffffffffffffffffffffffffffffffff1663660e16c36040518163ffffffff1660e01b8152600401602060405180830381865afa15801562000511573d6000803e3d6000fd5b505050506040513d601f19601f8201168201806040525081019062000537919062000f7d565b60405162000545906200107c565b60006040518083038185875af1925050503d806000811462000584576040519150601f19603f3d011682016040523d82523d6000602084013e62000589565b606091505b5050905080620005d0576040517f08c379a0000000000000000000000000000000000000000000000000000000008152600401620005c790620010e3565b60405180910390fd5b6002829080600181540180825580915050600190039060005260206000200160009091909190916101000a81548173ffffffffffffffffffffffffffffffffffffffff021916908373ffffffffffffffffffffffffffffffffffffffff1602179055507fb9db927de74dad0d4e18ec8cbdd75f4b1878709dc9b1630608d6cec754fef1568273ffffffffffffffffffffffffffffffffffffffff1663660e16c36040518163ffffffff1660e01b8152600401602060405180830381865afa158015620006a0573d6000803e3d6000fd5b505050506040513d601f19601f82011682018060405250810190620006c6919062000f7d565b604051620006d591906200099f565b60405180910390a150505050565b565b620006ef62000825565b6000838383604051620007029062000976565b620007109392919062001105565b604051809103906000f0801580156200072d573d6000803e3d6000fd5b5090506002819080600181540180825580915050600190039060005260206000200160009091909190916101000a81548173ffffffffffffffffffffffffffffffffffffffff021916908373ffffffffffffffffffffffffffffffffffffffff16021790555050505050565b620007a362000825565b600073ffffffffffffffffffffffffffffffffffffffff168173ffffffffffffffffffffffffffffffffffffffff160362000815576040517f08c379a00000000000000000000000000000000000000000000000000000000081526004016200080c90620011c6565b60405180910390fd5b6200082081620008aa565b50565b565b6200082f6200096e565b73ffffffffffffffffffffffffffffffffffffffff166200084f620003bd565b73ffffffffffffffffffffffffffffffffffffffff1614620008a8576040517f08c379a00000000000000000000000000000000000000000000000000000000081526004016200089f9062001238565b60405180910390fd5b565b60008060009054906101000a900473ffffffffffffffffffffffffffffffffffffffff169050816000806101000a81548173ffffffffffffffffffffffffffffffffffffffff021916908373ffffffffffffffffffffffffffffffffffffffff1602179055508173ffffffffffffffffffffffffffffffffffffffff168173ffffffffffffffffffffffffffffffffffffffff167f8be0079c531659141344cd1fd0a4f28419497f9722a3daafe3b4186f6b6457e060405160405180910390a35050565b600033905090565b610b0b806200125b83390190565b6000819050919050565b620009998162000984565b82525050565b6000602082019050620009b660008301846200098e565b92915050565b600081519050919050565b600082825260208201905092915050565b60005b83811015620009f8578082015181840152602081019050620009db565b60008484015250505050565b6000601f19601f8301169050919050565b600062000a2282620009bc565b62000a2e8185620009c7565b935062000a40818560208601620009d8565b62000a4b8162000a04565b840191505092915050565b6000602082019050818103600083015262000a72818462000a15565b905092915050565b600081519050919050565b600082825260208201905092915050565b6000819050602082019050919050565b600073ffffffffffffffffffffffffffffffffffffffff82169050919050565b6000819050919050565b600062000af162000aeb62000ae58462000aa6565b62000ac6565b62000aa6565b9050919050565b600062000b058262000ad0565b9050919050565b600062000b198262000af8565b9050919050565b62000b2b8162000b0c565b82525050565b600062000b3f838362000b20565b60208301905092915050565b6000602082019050919050565b600062000b658262000a7a565b62000b71818562000a85565b935062000b7e8362000a96565b8060005b8381101562000bb557815162000b99888262000b31565b975062000ba68362000b4b565b92505060018101905062000b82565b5085935050505092915050565b6000602082019050818103600083015262000bde818462000b58565b905092915050565b600062000bf38262000aa6565b9050919050565b62000c058162000be6565b82525050565b600060208201905062000c22600083018462000bfa565b92915050565b6000604051905090565b600080fd5b600080fd5b62000c478162000be6565b811462000c5357600080fd5b50565b60008135905062000c678162000c3c565b92915050565b6000806040838503121562000c875762000c8662000c32565b5b600062000c978582860162000c56565b925050602062000caa8582860162000c56565b9150509250929050565b600080fd5b600080fd5b7f4e487b7100000000000000000000000000000000000000000000000000000000600052604160045260246000fd5b62000cf88262000a04565b810181811067ffffffffffffffff8211171562000d1a5762000d1962000cbe565b5b80604052505050565b600062000d2f62000c28565b905062000d3d828262000ced565b919050565b600067ffffffffffffffff82111562000d605762000d5f62000cbe565b5b62000d6b8262000a04565b9050602081019050919050565b82818337600083830152505050565b600062000d9e62000d988462000d42565b62000d23565b90508281526020810184848401111562000dbd5762000dbc62000cb9565b5b62000dca84828562000d78565b509392505050565b600082601f83011262000dea5762000de962000cb4565b5b813562000dfc84826020860162000d87565b91505092915050565b62000e108162000984565b811462000e1c57600080fd5b50565b60008135905062000e308162000e05565b92915050565b60008060006060848603121562000e525762000e5162000c32565b5b600084013567ffffffffffffffff81111562000e735762000e7262000c37565b5b62000e818682870162000dd2565b935050602084013567ffffffffffffffff81111562000ea55762000ea462000c37565b5b62000eb38682870162000dd2565b925050604062000ec68682870162000e1f565b9150509250925092565b60006020828403121562000ee95762000ee862000c32565b5b600062000ef98482850162000c56565b91505092915050565b7f4e487b7100000000000000000000000000000000000000000000000000000000600052602260045260246000fd5b6000600282049050600182168062000f4a57607f821691505b60208210810362000f605762000f5f62000f02565b5b50919050565b60008151905062000f778162000e05565b92915050565b60006020828403121562000f965762000f9562000c32565b5b600062000fa68482850162000f66565b91505092915050565b7f456c2065717569706f206e6f207469656e6520666f6e646f732073756669636960008201527f656e746573000000000000000000000000000000000000000000000000000000602082015250565b60006200100d602583620009c7565b91506200101a8262000faf565b604082019050919050565b60006020820190508181036000830152620010408162000ffe565b9050919050565b600081905092915050565b50565b60006200106460008362001047565b9150620010718262001052565b600082019050919050565b6000620010898262001055565b9150819050919050565b7f4572726f7220656e206c61207472616e73666572656e63696100000000000000600082015250565b6000620010cb601983620009c7565b9150620010d88262001093565b602082019050919050565b60006020820190508181036000830152620010fe81620010bc565b9050919050565b6000606082019050818103600083015262001121818662000a15565b9050818103602083015262001137818562000a15565b90506200114860408301846200098e565b949350505050565b7f4f776e61626c653a206e6577206f776e657220697320746865207a65726f206160008201527f6464726573730000000000000000000000000000000000000000000000000000602082015250565b6000620011ae602683620009c7565b9150620011bb8262001150565b604082019050919050565b60006020820190508181036000830152620011e1816200119f565b9050919050565b7f4f776e61626c653a2063616c6c6572206973206e6f7420746865206f776e6572600082015250565b600062001220602083620009c7565b91506200122d82620011e8565b602082019050919050565b60006020820190508181036000830152620012538162001211565b905091905056fe60806040523480156200001157600080fd5b5060405162000b0b38038062000b0b833981810160405281019062000037919062000239565b826000908162000048919062000514565b5081600190816200005a919062000514565b5080600481905550505050620005fb565b6000604051905090565b600080fd5b600080fd5b600080fd5b600080fd5b6000601f19601f8301169050919050565b7f4e487b7100000000000000000000000000000000000000000000000000000000600052604160045260246000fd5b620000d48262000089565b810181811067ffffffffffffffff82111715620000f657620000f56200009a565b5b80604052505050565b60006200010b6200006b565b9050620001198282620000c9565b919050565b600067ffffffffffffffff8211156200013c576200013b6200009a565b5b620001478262000089565b9050602081019050919050565b60005b838110156200017457808201518184015260208101905062000157565b60008484015250505050565b60006200019762000191846200011e565b620000ff565b905082815260208101848484011115620001b657620001b562000084565b5b620001c384828562000154565b509392505050565b600082601f830112620001e357620001e26200007f565b5b8151620001f584826020860162000180565b91505092915050565b6000819050919050565b6200021381620001fe565b81146200021f57600080fd5b50565b600081519050620002338162000208565b92915050565b60008060006060848603121562000255576200025462000075565b5b600084015167ffffffffffffffff8111156200027657620002756200007a565b5b6200028486828701620001cb565b935050602084015167ffffffffffffffff811115620002a857620002a76200007a565b5b620002b686828701620001cb565b9250506040620002c98682870162000222565b9150509250925092565b600081519050919050565b7f4e487b7100000000000000000000000000000000000000000000000000000000600052602260045260246000fd5b600060028204905060018216806200032657607f821691505b6020821081036200033c576200033b620002de565b5b50919050565b60008190508160005260206000209050919050565b60006020601f8301049050919050565b600082821b905092915050565b600060088302620003a67fffffffffffffffffffffffffffffffffffffffffffffffffffffffffffffffff8262000367565b620003b2868362000367565b95508019841693508086168417925050509392505050565b6000819050919050565b6000620003f5620003ef620003e984620001fe565b620003ca565b620001fe565b9050919050565b6000819050919050565b6200041183620003d4565b620004296200042082620003fc565b84845462000374565b825550505050565b600090565b6200044062000431565b6200044d81848462000406565b505050565b5b8181101562000475576200046960008262000436565b60018101905062000453565b5050565b601f821115620004c4576200048e8162000342565b620004998462000357565b81016020851015620004a9578190505b620004c1620004b88562000357565b83018262000452565b50505b505050565b600082821c905092915050565b6000620004e960001984600802620004c9565b1980831691505092915050565b6000620005048383620004d6565b9150826002028217905092915050565b6200051f82620002d3565b67ffffffffffffffff8111156200053b576200053a6200009a565b5b6200054782546200030d565b6200055482828562000479565b600060209050601f8311600181146200058c576000841562000577578287015190505b620005838582620004f6565b865550620005f3565b601f1984166200059c8662000342565b60005b82811015620005c6578489015182556001820191506020850194506020810190506200059f565b86831015620005e65784890151620005e2601f891682620004d6565b8355505b6001600288020188555050505b505050505050565b610500806200060b6000396000f3fe608060405234801561001057600080fd5b50600436106100575760003560e01c8063660e16c31461005c5780636ef1f2b51461007a57806370f6e4cf146100965780638cbdd6bd146100b45780639f934c70146100d2575b600080fd5b6100646100dc565b6040516100719190610237565b60405180910390f35b610094600480360381019061008f9190610283565b6100e6565b005b61009e610151565b6040516100ab9190610237565b60405180910390f35b6100bc61015b565b6040516100c9919061036e565b60405180910390f35b6100da6101b3565b005b6000600454905090565b60028190806001815401808255809150506001900390600052602060002001600090919091909150556101176101b3565b7f0bd230340c351eece29a60e9c887f5d316a044b08a11e41b51b9d8d2252ceb62816040516101469190610237565b60405180910390a150565b6000600354905090565b606060028054806020026020016040519081016040528092919081815260200182805480156101a957602002820191906000526020600020905b815481526020019060010190808311610195575b5050505050905090565b6000805b60028054905081101561020357600281815481106101d8576101d7610390565b5b9060005260206000200154826101ee91906103ee565b915080806101fb90610422565b9150506101b7565b50600280549050816102159190610499565b60038190555050565b6000819050919050565b6102318161021e565b82525050565b600060208201905061024c6000830184610228565b92915050565b600080fd5b6102608161021e565b811461026b57600080fd5b50565b60008135905061027d81610257565b92915050565b60006020828403121561029957610298610252565b5b60006102a78482850161026e565b91505092915050565b600081519050919050565b600082825260208201905092915050565b6000819050602082019050919050565b6102e58161021e565b82525050565b60006102f783836102dc565b60208301905092915050565b6000602082019050919050565b600061031b826102b0565b61032581856102bb565b9350610330836102cc565b8060005b8381101561036157815161034888826102eb565b975061035383610303565b925050600181019050610334565b5085935050505092915050565b600060208201905081810360008301526103888184610310565b905092915050565b7f4e487b7100000000000000000000000000000000000000000000000000000000600052603260045260246000fd5b7f4e487b7100000000000000000000000000000000000000000000000000000000600052601160045260246000fd5b60006103f98261021e565b91506104048361021e565b925082820190508082111561041c5761041b6103bf565b5b92915050565b600061042d8261021e565b91507fffffffffffffffffffffffffffffffffffffffffffffffffffffffffffffffff820361045f5761045e6103bf565b5b600182019050919050565b7f4e487b7100000000000000000000000000000000000000000000000000000000600052601260045260246000fd5b60006104a48261021e565b91506104af8361021e565b9250826104bf576104be61046a565b5b82820490509291505056fea264697066735822122089ef463e1fdb09c318e0508a86c4eb0015875de5b1910602e0a8af4e01e40b3164736f6c63430008110033a264697066735822122044578b39adfc625abe349a6c3433b653beb7156dfa0fb85ac8fe75998380ce8364736f6c63430008110033",
  "immutableReferences": {},
  "source": "// SPDX-License-Identifier: MIT\npragma solidity ^0.8.17;\n\nimport \"@openzeppelin/contracts/access/Ownable.sol\";\nimport \"./Player.sol\";\n\ncontract Squad is Ownable {\n    string private name;\n    Player[] private players;\n\n    event FundsReceived(uint256 amount);\n    event PlayerAcquired(uint256 price);\n\n    receive() external payable {\n        emit FundsReceived(msg.value);\n    }\n\n    fallback() external payable {\n        emit FundsReceived(msg.value);\n    }\n\n    constructor(string memory _name) {\n        name = _name;\n    }\n\n    //Funcion p/ agregar un player, toma los parametros definidos x el constructor de Player.sol\n    function addNewPlayer(\n        string memory _name,\n        string memory _position,\n        uint256 _price\n    ) public onlyOwner {\n        Player player = new Player(_name, _position, _price);\n        players.push(player);\n    }\n    //Recibimos como param 1- Address del vendedor y 2- Address del player\n    function buyPlayer(address sellerAddress, address newPlayerAddress)\n        public\n        onlyOwner\n    {\n        Player newPlayer = Player(newPlayerAddress);\n        require(\n            address(this).balance >= newPlayer.getMarketPrice(),\n            \"El equipo no tiene fondos suficientes\"\n        );\n        (bool sent, ) = sellerAddress.call{value: newPlayer.getMarketPrice()}(\n            \"\"\n        );\n\n        require(sent, \"Error en la transferencia\");\n        players.push(newPlayer);\n        emit PlayerAcquired(newPlayer.getMarketPrice());\n    }\n\n    function getPlayers() public view returns (Player[] memory) {\n        return players;\n    }\n\n    function getSquadName() public view returns (string memory) {\n        return name;\n    }\n\n    function getDreamTeam() public {}\n\n    function sellPlayer() public {}\n}\n",
  "sourcePath": "D:\\CODER Programacion\\2022\\Solidity\\footballTeam\\contracts\\Squad.sol",
  "compiler": {
    "name": "solc",
    "version": "0.8.17+commit.8df45f5f.Emscripten.clang"
  },
  "schemaVersion": "3.4.10",
  "updatedAt": "2022-11-15T22:26:31.598Z",
  "networkType": "ethereum",
  "devdoc": {
    "kind": "dev",
    "methods": {
      "owner()": {
        "details": "Returns the address of the current owner."
      },
      "renounceOwnership()": {
        "details": "Leaves the contract without owner. It will not be possible to call `onlyOwner` functions anymore. Can only be called by the current owner. NOTE: Renouncing ownership will leave the contract without an owner, thereby removing any functionality that is only available to the owner."
      },
      "transferOwnership(address)": {
        "details": "Transfers ownership of the contract to a new account (`newOwner`). Can only be called by the current owner."
      }
    },
    "version": 1
  },
  "userdoc": {
    "kind": "user",
    "methods": {},
    "version": 1
  }
}