{
  "contractName": "Squad",
  "abi": [
    {
      "inputs": [
        {
          "internalType": "string",
          "name": "clubName",
          "type": "string"
        }
      ],
      "stateMutability": "nonpayable",
      "type": "constructor"
    },
    {
      "anonymous": false,
      "inputs": [
        {
          "indexed": false,
          "internalType": "uint256",
          "name": "amount",
          "type": "uint256"
        }
      ],
      "name": "FundsReceived",
      "type": "event"
    },
    {
      "anonymous": false,
      "inputs": [
        {
          "indexed": true,
          "internalType": "address",
          "name": "previousOwner",
          "type": "address"
        },
        {
          "indexed": true,
          "internalType": "address",
          "name": "newOwner",
          "type": "address"
        }
      ],
      "name": "OwnershipTransferred",
      "type": "event"
    },
    {
      "anonymous": false,
      "inputs": [
        {
          "indexed": false,
          "internalType": "string",
          "name": "playerName",
          "type": "string"
        }
      ],
      "name": "PlayerAcquired",
      "type": "event"
    },
    {
      "anonymous": false,
      "inputs": [
        {
          "indexed": false,
          "internalType": "string",
          "name": "name",
          "type": "string"
        }
      ],
      "name": "PlayerSold",
      "type": "event"
    },
    {
      "stateMutability": "payable",
      "type": "fallback",
      "payable": true
    },
    {
      "inputs": [],
      "name": "owner",
      "outputs": [
        {
          "internalType": "address",
          "name": "",
          "type": "address"
        }
      ],
      "stateMutability": "view",
      "type": "function",
      "constant": true
    },
    {
      "inputs": [],
      "name": "renounceOwnership",
      "outputs": [],
      "stateMutability": "nonpayable",
      "type": "function"
    },
    {
      "inputs": [
        {
          "internalType": "address",
          "name": "newOwner",
          "type": "address"
        }
      ],
      "name": "transferOwnership",
      "outputs": [],
      "stateMutability": "nonpayable",
      "type": "function"
    },
    {
      "stateMutability": "payable",
      "type": "receive",
      "payable": true
    },
    {
      "inputs": [
        {
          "internalType": "string",
          "name": "_name",
          "type": "string"
        },
        {
          "internalType": "string",
          "name": "_position",
          "type": "string"
        },
        {
          "internalType": "uint256",
          "name": "_price",
          "type": "uint256"
        }
      ],
      "name": "addNewPlayer",
      "outputs": [],
      "stateMutability": "nonpayable",
      "type": "function"
    },
    {
      "inputs": [
        {
          "internalType": "address",
          "name": "sellerAddress",
          "type": "address"
        },
        {
          "internalType": "address",
          "name": "newPlayerAddress",
          "type": "address"
        }
      ],
      "name": "buyPlayer",
      "outputs": [],
      "stateMutability": "nonpayable",
      "type": "function"
    },
    {
      "inputs": [
        {
          "internalType": "uint256",
          "name": "playerIndex",
          "type": "uint256"
        }
      ],
      "name": "sellPlayer",
      "outputs": [],
      "stateMutability": "payable",
      "type": "function",
      "payable": true
    },
    {
      "inputs": [
        {
          "internalType": "uint256",
          "name": "baseLineRate",
          "type": "uint256"
        }
      ],
      "name": "getDreamTeam",
      "outputs": [
        {
          "internalType": "contract Player[]",
          "name": "",
          "type": "address[]"
        }
      ],
      "stateMutability": "view",
      "type": "function",
      "constant": true
    },
    {
      "inputs": [],
      "name": "getPlayers",
      "outputs": [
        {
          "internalType": "contract Player[]",
          "name": "",
          "type": "address[]"
        }
      ],
      "stateMutability": "view",
      "type": "function",
      "constant": true
    },
    {
      "inputs": [
        {
          "internalType": "uint256",
          "name": "index",
          "type": "uint256"
        },
        {
          "internalType": "uint8",
          "name": "rate",
          "type": "uint8"
        }
      ],
      "name": "addRatingToPlayer",
      "outputs": [],
      "stateMutability": "nonpayable",
      "type": "function"
    }
  ],
  "bytecode": "0x60806040523480156200001157600080fd5b5060405162003074380380620030748339818101604052810190620000379190620002cf565b620000576200004b6200007060201b60201c565b6200007860201b60201c565b80600190816200006891906200056b565b505062000652565b600033905090565b60008060009054906101000a900473ffffffffffffffffffffffffffffffffffffffff169050816000806101000a81548173ffffffffffffffffffffffffffffffffffffffff021916908373ffffffffffffffffffffffffffffffffffffffff1602179055508173ffffffffffffffffffffffffffffffffffffffff168173ffffffffffffffffffffffffffffffffffffffff167f8be0079c531659141344cd1fd0a4f28419497f9722a3daafe3b4186f6b6457e060405160405180910390a35050565b6000604051905090565b600080fd5b600080fd5b600080fd5b600080fd5b6000601f19601f8301169050919050565b7f4e487b7100000000000000000000000000000000000000000000000000000000600052604160045260246000fd5b620001a5826200015a565b810181811067ffffffffffffffff82111715620001c757620001c66200016b565b5b80604052505050565b6000620001dc6200013c565b9050620001ea82826200019a565b919050565b600067ffffffffffffffff8211156200020d576200020c6200016b565b5b62000218826200015a565b9050602081019050919050565b60005b838110156200024557808201518184015260208101905062000228565b60008484015250505050565b6000620002686200026284620001ef565b620001d0565b90508281526020810184848401111562000287576200028662000155565b5b6200029484828562000225565b509392505050565b600082601f830112620002b457620002b362000150565b5b8151620002c684826020860162000251565b91505092915050565b600060208284031215620002e857620002e762000146565b5b600082015167ffffffffffffffff8111156200030957620003086200014b565b5b62000317848285016200029c565b91505092915050565b600081519050919050565b7f4e487b7100000000000000000000000000000000000000000000000000000000600052602260045260246000fd5b600060028204905060018216806200037357607f821691505b6020821081036200038957620003886200032b565b5b50919050565b60008190508160005260206000209050919050565b60006020601f8301049050919050565b600082821b905092915050565b600060088302620003f37fffffffffffffffffffffffffffffffffffffffffffffffffffffffffffffffff82620003b4565b620003ff8683620003b4565b95508019841693508086168417925050509392505050565b6000819050919050565b6000819050919050565b60006200044c62000446620004408462000417565b62000421565b62000417565b9050919050565b6000819050919050565b62000468836200042b565b62000480620004778262000453565b848454620003c1565b825550505050565b600090565b6200049762000488565b620004a48184846200045d565b505050565b5b81811015620004cc57620004c06000826200048d565b600181019050620004aa565b5050565b601f8211156200051b57620004e5816200038f565b620004f084620003a4565b8101602085101562000500578190505b620005186200050f85620003a4565b830182620004a9565b50505b505050565b600082821c905092915050565b6000620005406000198460080262000520565b1980831691505092915050565b60006200055b83836200052d565b9150826002028217905092915050565b620005768262000320565b67ffffffffffffffff8111156200059257620005916200016b565b5b6200059e82546200035a565b620005ab828285620004d0565b600060209050601f831160018114620005e35760008415620005ce578287015190505b620005da85826200054d565b8655506200064a565b601f198416620005f3866200038f565b60005b828110156200061d57848901518255600182019150602085019450602081019050620005f6565b868310156200063d578489015162000639601f8916826200052d565b8355505b6001600288020188555050505b505050505050565b612a1280620006626000396000f3fe608060405260043610620000975760003560e01c80639ccffcfa11620000615780639ccffcfa14620001d1578063b6d0365c14620001f1578063cc45ce3e146200021f578063e1f7de6e146200024d578063f2fde38b146200027b57620000d8565b80636fa5a2f21462000113578063715018a614620001575780638b5b9ccc14620001715780638da5cb5b14620001a157620000d8565b36620000d8577fbcdc7071c1beb6dcf2744621e0b29a2f2432ee20812d9ca5e3d5e8f9308d93a334604051620000ce919062001005565b60405180910390a1005b7fbcdc7071c1beb6dcf2744621e0b29a2f2432ee20812d9ca5e3d5e8f9308d93a33460405162000109919062001005565b60405180910390a1005b3480156200012057600080fd5b506200013f600480360381019062000139919062001067565b620002a9565b6040516200014e9190620011e1565b60405180910390f35b3480156200016457600080fd5b506200016f62000586565b005b3480156200017e57600080fd5b50620001896200059e565b604051620001989190620011e1565b60405180910390f35b348015620001ae57600080fd5b50620001b96200062e565b604051620001c891906200122a565b60405180910390f35b620001ef6004803603810190620001e9919062001067565b62000657565b005b348015620001fe57600080fd5b506200021d600480360381019062000217919062001285565b620009fc565b005b3480156200022c57600080fd5b506200024b6004803603810190620002459190620012fd565b62000afa565b005b3480156200025a57600080fd5b50620002796004803603810190620002739190620014a6565b62000d4d565b005b3480156200028857600080fd5b50620002a76004803603810190620002a1919062001540565b62000e01565b005b6060600080600090505b600280549050811015620003a2578360028281548110620002d957620002d862001572565b5b9060005260206000200160009054906101000a900473ffffffffffffffffffffffffffffffffffffffff1673ffffffffffffffffffffffffffffffffffffffff166370f6e4cf6040518163ffffffff1660e01b8152600401602060405180830381865afa1580156200034f573d6000803e3d6000fd5b505050506040513d601f19601f82011682018060405250810190620003759190620015b8565b106200038c578180620003889062001619565b9250505b8080620003999062001619565b915050620002b3565b5060008167ffffffffffffffff811115620003c257620003c16200135f565b5b604051908082528060200260200182016040528015620003f15781602001602082028036833780820191505090505b5090506000805b6002805490508110156200057a5785600282815481106200041e576200041d62001572565b5b9060005260206000200160009054906101000a900473ffffffffffffffffffffffffffffffffffffffff1673ffffffffffffffffffffffffffffffffffffffff166370f6e4cf6040518163ffffffff1660e01b8152600401602060405180830381865afa15801562000494573d6000803e3d6000fd5b505050506040513d601f19601f82011682018060405250810190620004ba9190620015b8565b1115620005645760028181548110620004d857620004d762001572565b5b9060005260206000200160009054906101000a900473ffffffffffffffffffffffffffffffffffffffff1683838151811062000519576200051862001572565b5b602002602001019073ffffffffffffffffffffffffffffffffffffffff16908173ffffffffffffffffffffffffffffffffffffffff16815250508180620005609062001619565b9250505b8080620005719062001619565b915050620003f8565b50819350505050919050565b6200059062000e8b565b6200059c600062000f10565b565b606060028054806020026020016040519081016040528092919081815260200182805480156200062457602002820191906000526020600020905b8160009054906101000a900473ffffffffffffffffffffffffffffffffffffffff1673ffffffffffffffffffffffffffffffffffffffff1681526020019060010190808311620005d9575b5050505050905090565b60008060009054906101000a900473ffffffffffffffffffffffffffffffffffffffff16905090565b620006616200062e565b73ffffffffffffffffffffffffffffffffffffffff163373ffffffffffffffffffffffffffffffffffffffff1603620006d1576040517f08c379a0000000000000000000000000000000000000000000000000000000008152600401620006c890620016ed565b60405180910390fd5b60028054905081106200071b576040517f08c379a000000000000000000000000000000000000000000000000000000000815260040162000712906200175f565b60405180910390fd5b60006002828154811062000734576200073362001572565b5b9060005260206000200160009054906101000a900473ffffffffffffffffffffffffffffffffffffffff1690508073ffffffffffffffffffffffffffffffffffffffff1663660e16c36040518163ffffffff1660e01b8152600401602060405180830381865afa158015620007ad573d6000803e3d6000fd5b505050506040513d601f19601f82011682018060405250810190620007d39190620015b8565b341462000817576040517f08c379a00000000000000000000000000000000000000000000000000000000081526004016200080e90620017d1565b60405180910390fd5b60008290505b6001600280549050620008319190620017f3565b811015620008fe5760026001826200084a91906200182e565b815481106200085e576200085d62001572565b5b9060005260206000200160009054906101000a900473ffffffffffffffffffffffffffffffffffffffff1660028281548110620008a0576200089f62001572565b5b9060005260206000200160006101000a81548173ffffffffffffffffffffffffffffffffffffffff021916908373ffffffffffffffffffffffffffffffffffffffff1602179055508080620008f59062001619565b9150506200081d565b50600280548062000914576200091362001869565b5b6001900381819060005260206000200160006101000a81549073ffffffffffffffffffffffffffffffffffffffff021916905590557fc07cdfac9851911af3b83dac3881442b8f2f0c9cf7eeb09df8b24f8c3c1eeefa8173ffffffffffffffffffffffffffffffffffffffff166317d7de7c6040518163ffffffff1660e01b8152600401600060405180830381865afa158015620009b6573d6000803e3d6000fd5b505050506040513d6000823e3d601f19601f82011682018060405250810190620009e1919062001942565b604051620009f09190620019df565b60405180910390a15050565b600280549050821062000a46576040517f08c379a000000000000000000000000000000000000000000000000000000000815260040162000a3d906200175f565b60405180910390fd5b6002828154811062000a5d5762000a5c62001572565b5b9060005260206000200160009054906101000a900473ffffffffffffffffffffffffffffffffffffffff1673ffffffffffffffffffffffffffffffffffffffff16636ef1f2b5826040518263ffffffff1660e01b815260040162000ac2919062001a3c565b600060405180830381600087803b15801562000add57600080fd5b505af115801562000af2573d6000803e3d6000fd5b505050505050565b62000b0462000e8b565b60008190508073ffffffffffffffffffffffffffffffffffffffff1663660e16c36040518163ffffffff1660e01b8152600401602060405180830381865afa15801562000b55573d6000803e3d6000fd5b505050506040513d601f19601f8201168201806040525081019062000b7b9190620015b8565b47101562000bc0576040517f08c379a000000000000000000000000000000000000000000000000000000000815260040162000bb79062001acf565b60405180910390fd5b60008373ffffffffffffffffffffffffffffffffffffffff168273ffffffffffffffffffffffffffffffffffffffff1663660e16c36040518163ffffffff1660e01b8152600401602060405180830381865afa15801562000c25573d6000803e3d6000fd5b505050506040513d601f19601f8201168201806040525081019062000c4b9190620015b8565b60405162000c599062001b26565b60006040518083038185875af1925050503d806000811462000c98576040519150601f19603f3d011682016040523d82523d6000602084013e62000c9d565b606091505b505090508062000ce4576040517f08c379a000000000000000000000000000000000000000000000000000000000815260040162000cdb9062001b8d565b60405180910390fd5b6002829080600181540180825580915050600190039060005260206000200160009091909190916101000a81548173ffffffffffffffffffffffffffffffffffffffff021916908373ffffffffffffffffffffffffffffffffffffffff16021790555050505050565b62000d5762000e8b565b600083838360405162000d6a9062000fdc565b62000d789392919062001baf565b604051809103906000f08015801562000d95573d6000803e3d6000fd5b5090506002819080600181540180825580915050600190039060005260206000200160009091909190916101000a81548173ffffffffffffffffffffffffffffffffffffffff021916908373ffffffffffffffffffffffffffffffffffffffff16021790555050505050565b62000e0b62000e8b565b600073ffffffffffffffffffffffffffffffffffffffff168173ffffffffffffffffffffffffffffffffffffffff160362000e7d576040517f08c379a000000000000000000000000000000000000000000000000000000000815260040162000e749062001c70565b60405180910390fd5b62000e888162000f10565b50565b62000e9562000fd4565b73ffffffffffffffffffffffffffffffffffffffff1662000eb56200062e565b73ffffffffffffffffffffffffffffffffffffffff161462000f0e576040517f08c379a000000000000000000000000000000000000000000000000000000000815260040162000f059062001ce2565b60405180910390fd5b565b60008060009054906101000a900473ffffffffffffffffffffffffffffffffffffffff169050816000806101000a81548173ffffffffffffffffffffffffffffffffffffffff021916908373ffffffffffffffffffffffffffffffffffffffff1602179055508173ffffffffffffffffffffffffffffffffffffffff168173ffffffffffffffffffffffffffffffffffffffff167f8be0079c531659141344cd1fd0a4f28419497f9722a3daafe3b4186f6b6457e060405160405180910390a35050565b600033905090565b610cd88062001d0583390190565b6000819050919050565b62000fff8162000fea565b82525050565b60006020820190506200101c600083018462000ff4565b92915050565b6000604051905090565b600080fd5b600080fd5b620010418162000fea565b81146200104d57600080fd5b50565b600081359050620010618162001036565b92915050565b60006020828403121562001080576200107f6200102c565b5b6000620010908482850162001050565b91505092915050565b600081519050919050565b600082825260208201905092915050565b6000819050602082019050919050565b600073ffffffffffffffffffffffffffffffffffffffff82169050919050565b6000819050919050565b6000620011106200110a6200110484620010c5565b620010e5565b620010c5565b9050919050565b60006200112482620010ef565b9050919050565b6000620011388262001117565b9050919050565b6200114a816200112b565b82525050565b60006200115e83836200113f565b60208301905092915050565b6000602082019050919050565b6000620011848262001099565b620011908185620010a4565b93506200119d83620010b5565b8060005b83811015620011d4578151620011b8888262001150565b9750620011c5836200116a565b925050600181019050620011a1565b5085935050505092915050565b60006020820190508181036000830152620011fd818462001177565b905092915050565b60006200121282620010c5565b9050919050565b620012248162001205565b82525050565b600060208201905062001241600083018462001219565b92915050565b600060ff82169050919050565b6200125f8162001247565b81146200126b57600080fd5b50565b6000813590506200127f8162001254565b92915050565b600080604083850312156200129f576200129e6200102c565b5b6000620012af8582860162001050565b9250506020620012c2858286016200126e565b9150509250929050565b620012d78162001205565b8114620012e357600080fd5b50565b600081359050620012f781620012cc565b92915050565b600080604083850312156200131757620013166200102c565b5b60006200132785828601620012e6565b92505060206200133a85828601620012e6565b9150509250929050565b600080fd5b600080fd5b6000601f19601f8301169050919050565b7f4e487b7100000000000000000000000000000000000000000000000000000000600052604160045260246000fd5b62001399826200134e565b810181811067ffffffffffffffff82111715620013bb57620013ba6200135f565b5b80604052505050565b6000620013d062001022565b9050620013de82826200138e565b919050565b600067ffffffffffffffff8211156200140157620014006200135f565b5b6200140c826200134e565b9050602081019050919050565b82818337600083830152505050565b60006200143f6200143984620013e3565b620013c4565b9050828152602081018484840111156200145e576200145d62001349565b5b6200146b84828562001419565b509392505050565b600082601f8301126200148b576200148a62001344565b5b81356200149d84826020860162001428565b91505092915050565b600080600060608486031215620014c257620014c16200102c565b5b600084013567ffffffffffffffff811115620014e357620014e262001031565b5b620014f18682870162001473565b935050602084013567ffffffffffffffff81111562001515576200151462001031565b5b620015238682870162001473565b9250506040620015368682870162001050565b9150509250925092565b6000602082840312156200155957620015586200102c565b5b60006200156984828501620012e6565b91505092915050565b7f4e487b7100000000000000000000000000000000000000000000000000000000600052603260045260246000fd5b600081519050620015b28162001036565b92915050565b600060208284031215620015d157620015d06200102c565b5b6000620015e184828501620015a1565b91505092915050565b7f4e487b7100000000000000000000000000000000000000000000000000000000600052601160045260246000fd5b6000620016268262000fea565b91507fffffffffffffffffffffffffffffffffffffffffffffffffffffffffffffffff82036200165b576200165a620015ea565b5b600182019050919050565b600082825260208201905092915050565b7f456c206475656e6f206e6f20707565646520656a65637574617220657374612060008201527f66756e63696f6e00000000000000000000000000000000000000000000000000602082015250565b6000620016d560278362001666565b9150620016e28262001677565b604082019050919050565b600060208201905081810360008301526200170881620016c6565b9050919050565b7f496e64696365206e6f20656e636f6e747261646f000000000000000000000000600082015250565b60006200174760148362001666565b915062001754826200170f565b602082019050919050565b600060208201905081810360008301526200177a8162001738565b9050919050565b7f466f6e646f7320696e737566696369656e746573000000000000000000000000600082015250565b6000620017b960148362001666565b9150620017c68262001781565b602082019050919050565b60006020820190508181036000830152620017ec81620017aa565b9050919050565b6000620018008262000fea565b91506200180d8362000fea565b9250828203905081811115620018285762001827620015ea565b5b92915050565b60006200183b8262000fea565b9150620018488362000fea565b9250828201905080821115620018635762001862620015ea565b5b92915050565b7f4e487b7100000000000000000000000000000000000000000000000000000000600052603160045260246000fd5b60005b83811015620018b85780820151818401526020810190506200189b565b60008484015250505050565b6000620018db620018d584620013e3565b620013c4565b905082815260208101848484011115620018fa57620018f962001349565b5b6200190784828562001898565b509392505050565b600082601f83011262001927576200192662001344565b5b815162001939848260208601620018c4565b91505092915050565b6000602082840312156200195b576200195a6200102c565b5b600082015167ffffffffffffffff8111156200197c576200197b62001031565b5b6200198a848285016200190f565b91505092915050565b600081519050919050565b6000620019ab8262001993565b620019b7818562001666565b9350620019c981856020860162001898565b620019d4816200134e565b840191505092915050565b60006020820190508181036000830152620019fb81846200199e565b905092915050565b600062001a2462001a1e62001a188462001247565b620010e5565b62000fea565b9050919050565b62001a368162001a03565b82525050565b600060208201905062001a53600083018462001a2b565b92915050565b7f456c2065717569706f206e6f207469656e6520666f6e646f732073756669636960008201527f656e746573000000000000000000000000000000000000000000000000000000602082015250565b600062001ab760258362001666565b915062001ac48262001a59565b604082019050919050565b6000602082019050818103600083015262001aea8162001aa8565b9050919050565b600081905092915050565b50565b600062001b0e60008362001af1565b915062001b1b8262001afc565b600082019050919050565b600062001b338262001aff565b9150819050919050565b7f4572726f7220656e206c61207472616e73666572656e63696100000000000000600082015250565b600062001b7560198362001666565b915062001b828262001b3d565b602082019050919050565b6000602082019050818103600083015262001ba88162001b66565b9050919050565b6000606082019050818103600083015262001bcb81866200199e565b9050818103602083015262001be181856200199e565b905062001bf2604083018462000ff4565b949350505050565b7f4f776e61626c653a206e6577206f776e657220697320746865207a65726f206160008201527f6464726573730000000000000000000000000000000000000000000000000000602082015250565b600062001c5860268362001666565b915062001c658262001bfa565b604082019050919050565b6000602082019050818103600083015262001c8b8162001c49565b9050919050565b7f4f776e61626c653a2063616c6c6572206973206e6f7420746865206f776e6572600082015250565b600062001cca60208362001666565b915062001cd78262001c92565b602082019050919050565b6000602082019050818103600083015262001cfd8162001cbb565b905091905056fe60806040523480156200001157600080fd5b5060405162000cd838038062000cd8833981810160405281019062000037919062000239565b826000908162000048919062000514565b5081600190816200005a919062000514565b5080600481905550505050620005fb565b6000604051905090565b600080fd5b600080fd5b600080fd5b600080fd5b6000601f19601f8301169050919050565b7f4e487b7100000000000000000000000000000000000000000000000000000000600052604160045260246000fd5b620000d48262000089565b810181811067ffffffffffffffff82111715620000f657620000f56200009a565b5b80604052505050565b60006200010b6200006b565b9050620001198282620000c9565b919050565b600067ffffffffffffffff8211156200013c576200013b6200009a565b5b620001478262000089565b9050602081019050919050565b60005b838110156200017457808201518184015260208101905062000157565b60008484015250505050565b60006200019762000191846200011e565b620000ff565b905082815260208101848484011115620001b657620001b562000084565b5b620001c384828562000154565b509392505050565b600082601f830112620001e357620001e26200007f565b5b8151620001f584826020860162000180565b91505092915050565b6000819050919050565b6200021381620001fe565b81146200021f57600080fd5b50565b600081519050620002338162000208565b92915050565b60008060006060848603121562000255576200025462000075565b5b600084015167ffffffffffffffff8111156200027657620002756200007a565b5b6200028486828701620001cb565b935050602084015167ffffffffffffffff811115620002a857620002a76200007a565b5b620002b686828701620001cb565b9250506040620002c98682870162000222565b9150509250925092565b600081519050919050565b7f4e487b7100000000000000000000000000000000000000000000000000000000600052602260045260246000fd5b600060028204905060018216806200032657607f821691505b6020821081036200033c576200033b620002de565b5b50919050565b60008190508160005260206000209050919050565b60006020601f8301049050919050565b600082821b905092915050565b600060088302620003a67fffffffffffffffffffffffffffffffffffffffffffffffffffffffffffffffff8262000367565b620003b2868362000367565b95508019841693508086168417925050509392505050565b6000819050919050565b6000620003f5620003ef620003e984620001fe565b620003ca565b620001fe565b9050919050565b6000819050919050565b6200041183620003d4565b620004296200042082620003fc565b84845462000374565b825550505050565b600090565b6200044062000431565b6200044d81848462000406565b505050565b5b8181101562000475576200046960008262000436565b60018101905062000453565b5050565b601f821115620004c4576200048e8162000342565b620004998462000357565b81016020851015620004a9578190505b620004c1620004b88562000357565b83018262000452565b50505b505050565b600082821c905092915050565b6000620004e960001984600802620004c9565b1980831691505092915050565b6000620005048383620004d6565b9150826002028217905092915050565b6200051f82620002d3565b67ffffffffffffffff8111156200053b576200053a6200009a565b5b6200054782546200030d565b6200055482828562000479565b600060209050601f8311600181146200058c576000841562000577578287015190505b620005838582620004f6565b865550620005f3565b601f1984166200059c8662000342565b60005b82811015620005c6578489015182556001820191506020850194506020810190506200059f565b86831015620005e65784890151620005e2601f891682620004d6565b8355505b6001600288020188555050505b505050505050565b6106cd806200060b6000396000f3fe608060405234801561001057600080fd5b50600436106100625760003560e01c806317d7de7c14610067578063660e16c3146100855780636ef1f2b5146100a357806370f6e4cf146100bf5780638cbdd6bd146100dd5780639f934c70146100fb575b600080fd5b61006f610105565b60405161007c9190610369565b60405180910390f35b61008d610197565b60405161009a91906103a4565b60405180910390f35b6100bd60048036038101906100b891906103f0565b6101a1565b005b6100c761020c565b6040516100d491906103a4565b60405180910390f35b6100e5610216565b6040516100f291906104db565b60405180910390f35b61010361026e565b005b6060600080546101149061052c565b80601f01602080910402602001604051908101604052809291908181526020018280546101409061052c565b801561018d5780601f106101625761010080835404028352916020019161018d565b820191906000526020600020905b81548152906001019060200180831161017057829003601f168201915b5050505050905090565b6000600454905090565b60028190806001815401808255809150506001900390600052602060002001600090919091909150556101d261026e565b7f0bd230340c351eece29a60e9c887f5d316a044b08a11e41b51b9d8d2252ceb628160405161020191906103a4565b60405180910390a150565b6000600354905090565b6060600280548060200260200160405190810160405280929190818152602001828054801561026457602002820191906000526020600020905b815481526020019060010190808311610250575b5050505050905090565b6000805b6002805490508110156102be57600281815481106102935761029261055d565b5b9060005260206000200154826102a991906105bb565b915080806102b6906105ef565b915050610272565b50600280549050816102d09190610666565b60038190555050565b600081519050919050565b600082825260208201905092915050565b60005b838110156103135780820151818401526020810190506102f8565b60008484015250505050565b6000601f19601f8301169050919050565b600061033b826102d9565b61034581856102e4565b93506103558185602086016102f5565b61035e8161031f565b840191505092915050565b600060208201905081810360008301526103838184610330565b905092915050565b6000819050919050565b61039e8161038b565b82525050565b60006020820190506103b96000830184610395565b92915050565b600080fd5b6103cd8161038b565b81146103d857600080fd5b50565b6000813590506103ea816103c4565b92915050565b600060208284031215610406576104056103bf565b5b6000610414848285016103db565b91505092915050565b600081519050919050565b600082825260208201905092915050565b6000819050602082019050919050565b6104528161038b565b82525050565b60006104648383610449565b60208301905092915050565b6000602082019050919050565b60006104888261041d565b6104928185610428565b935061049d83610439565b8060005b838110156104ce5781516104b58882610458565b97506104c083610470565b9250506001810190506104a1565b5085935050505092915050565b600060208201905081810360008301526104f5818461047d565b905092915050565b7f4e487b7100000000000000000000000000000000000000000000000000000000600052602260045260246000fd5b6000600282049050600182168061054457607f821691505b602082108103610557576105566104fd565b5b50919050565b7f4e487b7100000000000000000000000000000000000000000000000000000000600052603260045260246000fd5b7f4e487b7100000000000000000000000000000000000000000000000000000000600052601160045260246000fd5b60006105c68261038b565b91506105d18361038b565b92508282019050808211156105e9576105e861058c565b5b92915050565b60006105fa8261038b565b91507fffffffffffffffffffffffffffffffffffffffffffffffffffffffffffffffff820361062c5761062b61058c565b5b600182019050919050565b7f4e487b7100000000000000000000000000000000000000000000000000000000600052601260045260246000fd5b60006106718261038b565b915061067c8361038b565b92508261068c5761068b610637565b5b82820490509291505056fea26469706673582212200e565ba6863e73dd16dd2d9061d825362ca286e98eb8fd4d876fc01165a8291e64736f6c63430008110033a2646970667358221220b6310467841e2e58b08dac666c482c3997ccab10b82888cdb3fa8f464f5a2b0064736f6c63430008110033",
  "immutableReferences": {},
  "source": "// SPDX-License-Identifier: MIT\npragma solidity ^0.8.17;\n\nimport \"@openzeppelin/contracts/access/Ownable.sol\";\nimport \"./Player.sol\";\n\ncontract Squad is Ownable {\n    string private name;\n    Player[] private players;\n\n    event FundsReceived(uint256 amount);\n    event PlayerAcquired(string playerName);\n    event PlayerSold(string name);\n\n    modifier notOwner() {\n        require(\n            msg.sender != owner(),\n            \"El dueno no puede ejecutar esta funcion\"\n        );\n        _;\n    }\n\n    receive() external payable {\n        emit FundsReceived(msg.value);\n    }\n\n    fallback() external payable {\n        emit FundsReceived(msg.value);\n    }\n\n    constructor(string memory clubName) {\n        name = clubName;\n    }\n\n    //Funcion p/ agregar un player, toma los parametros definidos x el constructor de Player.sol\n    function addNewPlayer(\n        string memory _name,\n        string memory _position,\n        uint256 _price\n    ) public onlyOwner {\n        Player player = new Player(_name, _position, _price);\n        players.push(player);\n    }\n\n    //Recibimos como param 1- Address del vendedor y 2- Address del player\n    function buyPlayer(address sellerAddress, address newPlayerAddress)\n        public\n        onlyOwner\n    {\n        Player newPlayer = Player(newPlayerAddress);\n        require(\n            address(this).balance >= newPlayer.getMarketPrice(),\n            \"El equipo no tiene fondos suficientes\"\n        );\n        (bool sent, ) = sellerAddress.call{value: newPlayer.getMarketPrice()}(\n            \"\"\n        );\n\n        require(sent, \"Error en la transferencia\");\n        players.push(newPlayer);\n        //emit PlayerAcquired(newPlayer.getMarketPrice());\n    }\n\n    //Se recibe el index del array (en este caso del 0 al 10 por ej),\n    //Del 0 (Arquero) al 10 (delantero),\n    //Esta funcion no la podra ejecutar el Owner\n    function sellPlayer(uint256 playerIndex) public payable notOwner {\n        //1ro: validar q el indice que se reciba exista (sea < al tamano del [])\n        require(playerIndex < players.length, \"Indice no encontrado\");\n        Player playerToSell = players[playerIndex];\n\n        //Validar que el value de la transaccion es igual al valor del jugador\n        require(\n            msg.value == playerToSell.getMarketPrice(),\n            \"Fondos insuficientes\"\n        );\n        //El indice mayor sera el length -1 (por la posicion cero)\n        //Por ejemplo quiero eliminar el jugador 5 - seria el index 6\n        for (uint256 i = playerIndex; i < players.length - 1; i++) {\n            //se correra el elemento hacia la ultima posicion del array\n            players[i] = players[i + 1];\n        }\n        //Eliminar el ultimo elemento del array\n        players.pop();\n\n        emit PlayerSold(playerToSell.getName());\n    }\n\n    //De acuerdo a un rating minimo, se debe devolver los jugadores de ahi en +\n    //Los elementos que obtenga, los retornara y los agrupara en un []\n    function getDreamTeam(uint256 baseLineRate)\n        public\n        view\n        returns (Player[] memory)\n    {\n        //1ro debemos establecer un contador\n        uint256 dTeamCount;\n        //Despues 2 ciclos FOR\n        //El 1er ciclo, devolvera cuantos elementos tendra el nuevo []\n        for (uint256 i = 0; i < players.length; i++) {\n            if (players[i].getAverageRating() >= baseLineRate) {\n                dTeamCount++;\n            }\n        }\n    \n        //Creo un array con i elementos\n        Player[] memory dTeam = new Player[](dTeamCount);\n\n        //El 2do for es para agregar esos jugadores al nuevo []\n        //Creo una nueva VAR auxiliar \"j\"\n        uint256 j = 0;\n\n        for (uint256 i = 0; i < players.length; i++) {\n            if (players[i].getAverageRating() > baseLineRate) {\n                //al nuevo array se agreguen los players q cumplan las condiciones\n                dTeam[j] = players[i];\n                j++;\n            }\n        }\n\n        return dTeam;\n    }\n\n    function getPlayers() public view returns (Player[] memory) {\n        return players;\n    }\n\n    function addRatingToPlayer(uint256 index, uint8 rate) public {\n        require(index < players.length, \"Indice no encontrado\");\n        players[index].addNewRate(rate);\n    }\n}\n",
  "sourcePath": "D:\\CODER Programacion\\2022\\Solidity\\footballTeam\\contracts\\Squad.sol",
  "compiler": {
    "name": "solc",
    "version": "0.8.17+commit.8df45f5f.Emscripten.clang"
  },
  "schemaVersion": "3.4.10",
  "updatedAt": "2022-11-17T23:06:21.255Z",
  "networkType": "ethereum",
  "devdoc": {
    "kind": "dev",
    "methods": {
      "owner()": {
        "details": "Returns the address of the current owner."
      },
      "renounceOwnership()": {
        "details": "Leaves the contract without owner. It will not be possible to call `onlyOwner` functions anymore. Can only be called by the current owner. NOTE: Renouncing ownership will leave the contract without an owner, thereby removing any functionality that is only available to the owner."
      },
      "transferOwnership(address)": {
        "details": "Transfers ownership of the contract to a new account (`newOwner`). Can only be called by the current owner."
      }
    },
    "version": 1
  },
  "userdoc": {
    "kind": "user",
    "methods": {},
    "version": 1
  }
}