{
  "contractName": "Squad",
  "abi": [
    {
      "inputs": [
        {
          "internalType": "string",
          "name": "clubName",
          "type": "string"
        }
      ],
      "stateMutability": "nonpayable",
      "type": "constructor"
    },
    {
      "anonymous": false,
      "inputs": [
        {
          "indexed": false,
          "internalType": "uint256",
          "name": "amount",
          "type": "uint256"
        }
      ],
      "name": "FundsReceived",
      "type": "event"
    },
    {
      "anonymous": false,
      "inputs": [
        {
          "indexed": true,
          "internalType": "address",
          "name": "previousOwner",
          "type": "address"
        },
        {
          "indexed": true,
          "internalType": "address",
          "name": "newOwner",
          "type": "address"
        }
      ],
      "name": "OwnershipTransferred",
      "type": "event"
    },
    {
      "anonymous": false,
      "inputs": [
        {
          "indexed": false,
          "internalType": "string",
          "name": "playerName",
          "type": "string"
        }
      ],
      "name": "PlayerAcquired",
      "type": "event"
    },
    {
      "anonymous": false,
      "inputs": [
        {
          "indexed": false,
          "internalType": "string",
          "name": "playerName",
          "type": "string"
        }
      ],
      "name": "PlayerAdded",
      "type": "event"
    },
    {
      "anonymous": false,
      "inputs": [
        {
          "indexed": false,
          "internalType": "string",
          "name": "playerName",
          "type": "string"
        }
      ],
      "name": "PlayerSold",
      "type": "event"
    },
    {
      "anonymous": false,
      "inputs": [
        {
          "indexed": false,
          "internalType": "string",
          "name": "name",
          "type": "string"
        }
      ],
      "name": "SquadName",
      "type": "event"
    },
    {
      "stateMutability": "payable",
      "type": "fallback",
      "payable": true
    },
    {
      "inputs": [],
      "name": "owner",
      "outputs": [
        {
          "internalType": "address",
          "name": "",
          "type": "address"
        }
      ],
      "stateMutability": "view",
      "type": "function",
      "constant": true
    },
    {
      "inputs": [],
      "name": "renounceOwnership",
      "outputs": [],
      "stateMutability": "nonpayable",
      "type": "function"
    },
    {
      "inputs": [
        {
          "internalType": "address",
          "name": "newOwner",
          "type": "address"
        }
      ],
      "name": "transferOwnership",
      "outputs": [],
      "stateMutability": "nonpayable",
      "type": "function"
    },
    {
      "stateMutability": "payable",
      "type": "receive",
      "payable": true
    },
    {
      "inputs": [],
      "name": "getTeamName",
      "outputs": [],
      "stateMutability": "nonpayable",
      "type": "function"
    },
    {
      "inputs": [
        {
          "internalType": "string",
          "name": "_name",
          "type": "string"
        },
        {
          "internalType": "string",
          "name": "_position",
          "type": "string"
        },
        {
          "internalType": "uint256",
          "name": "_price",
          "type": "uint256"
        }
      ],
      "name": "addNewPlayer",
      "outputs": [],
      "stateMutability": "nonpayable",
      "type": "function"
    },
    {
      "inputs": [
        {
          "internalType": "address",
          "name": "sellerAddress",
          "type": "address"
        },
        {
          "internalType": "address",
          "name": "newPlayerAddress",
          "type": "address"
        }
      ],
      "name": "buyPlayer",
      "outputs": [],
      "stateMutability": "payable",
      "type": "function",
      "payable": true
    },
    {
      "inputs": [
        {
          "internalType": "uint256",
          "name": "playerIndex",
          "type": "uint256"
        }
      ],
      "name": "sellPlayer",
      "outputs": [],
      "stateMutability": "payable",
      "type": "function",
      "payable": true
    },
    {
      "inputs": [
        {
          "internalType": "uint256",
          "name": "baseLineRate",
          "type": "uint256"
        }
      ],
      "name": "getDreamTeam",
      "outputs": [
        {
          "internalType": "contract Player[]",
          "name": "",
          "type": "address[]"
        }
      ],
      "stateMutability": "view",
      "type": "function",
      "constant": true
    },
    {
      "inputs": [],
      "name": "getPlayers",
      "outputs": [
        {
          "internalType": "contract Player[]",
          "name": "",
          "type": "address[]"
        }
      ],
      "stateMutability": "view",
      "type": "function",
      "constant": true
    },
    {
      "inputs": [
        {
          "internalType": "uint256",
          "name": "index",
          "type": "uint256"
        },
        {
          "internalType": "uint8",
          "name": "rate",
          "type": "uint8"
        }
      ],
      "name": "addRatingToPlayer",
      "outputs": [],
      "stateMutability": "nonpayable",
      "type": "function"
    }
  ],
  "bytecode": "0x60806040523480156200001157600080fd5b506040516200322e3803806200322e8339818101604052810190620000379190620002cf565b620000576200004b6200007060201b60201c565b6200007860201b60201c565b80600190816200006891906200056b565b505062000652565b600033905090565b60008060009054906101000a900473ffffffffffffffffffffffffffffffffffffffff169050816000806101000a81548173ffffffffffffffffffffffffffffffffffffffff021916908373ffffffffffffffffffffffffffffffffffffffff1602179055508173ffffffffffffffffffffffffffffffffffffffff168173ffffffffffffffffffffffffffffffffffffffff167f8be0079c531659141344cd1fd0a4f28419497f9722a3daafe3b4186f6b6457e060405160405180910390a35050565b6000604051905090565b600080fd5b600080fd5b600080fd5b600080fd5b6000601f19601f8301169050919050565b7f4e487b7100000000000000000000000000000000000000000000000000000000600052604160045260246000fd5b620001a5826200015a565b810181811067ffffffffffffffff82111715620001c757620001c66200016b565b5b80604052505050565b6000620001dc6200013c565b9050620001ea82826200019a565b919050565b600067ffffffffffffffff8211156200020d576200020c6200016b565b5b62000218826200015a565b9050602081019050919050565b60005b838110156200024557808201518184015260208101905062000228565b60008484015250505050565b6000620002686200026284620001ef565b620001d0565b90508281526020810184848401111562000287576200028662000155565b5b6200029484828562000225565b509392505050565b600082601f830112620002b457620002b362000150565b5b8151620002c684826020860162000251565b91505092915050565b600060208284031215620002e857620002e762000146565b5b600082015167ffffffffffffffff8111156200030957620003086200014b565b5b62000317848285016200029c565b91505092915050565b600081519050919050565b7f4e487b7100000000000000000000000000000000000000000000000000000000600052602260045260246000fd5b600060028204905060018216806200037357607f821691505b6020821081036200038957620003886200032b565b5b50919050565b60008190508160005260206000209050919050565b60006020601f8301049050919050565b600082821b905092915050565b600060088302620003f37fffffffffffffffffffffffffffffffffffffffffffffffffffffffffffffffff82620003b4565b620003ff8683620003b4565b95508019841693508086168417925050509392505050565b6000819050919050565b6000819050919050565b60006200044c62000446620004408462000417565b62000421565b62000417565b9050919050565b6000819050919050565b62000468836200042b565b62000480620004778262000453565b848454620003c1565b825550505050565b600090565b6200049762000488565b620004a48184846200045d565b505050565b5b81811015620004cc57620004c06000826200048d565b600181019050620004aa565b5050565b601f8211156200051b57620004e5816200038f565b620004f084620003a4565b8101602085101562000500578190505b620005186200050f85620003a4565b830182620004a9565b50505b505050565b600082821c905092915050565b6000620005406000198460080262000520565b1980831691505092915050565b60006200055b83836200052d565b9150826002028217905092915050565b620005768262000320565b67ffffffffffffffff8111156200059257620005916200016b565b5b6200059e82546200035a565b620005ab828285620004d0565b600060209050601f831160018114620005e35760008415620005ce578287015190505b620005da85826200054d565b8655506200064a565b601f198416620005f3866200038f565b60005b828110156200061d57848901518255600182019150602085019450602081019050620005f6565b868310156200063d578489015162000639601f8916826200052d565b8355505b6001600288020188555050505b505050505050565b612bcc80620006626000396000f3fe608060405260043610620000a35760003560e01c8063b6d0365c1162000061578063b6d0365c14620001fd578063bf09fdab146200022b578063cc45ce3e1462000245578063e1f7de6e1462000265578063f2fde38b146200029357620000e4565b80636fa5a2f2146200011f578063715018a614620001635780638b5b9ccc146200017d5780638da5cb5b14620001ad5780639ccffcfa14620001dd57620000e4565b36620000e4577fbcdc7071c1beb6dcf2744621e0b29a2f2432ee20812d9ca5e3d5e8f9308d93a334604051620000da919062001092565b60405180910390a1005b7fbcdc7071c1beb6dcf2744621e0b29a2f2432ee20812d9ca5e3d5e8f9308d93a33460405162000115919062001092565b60405180910390a1005b3480156200012c57600080fd5b506200014b6004803603810190620001459190620010f4565b620002c1565b6040516200015a91906200126e565b60405180910390f35b3480156200017057600080fd5b506200017b6200059e565b005b3480156200018a57600080fd5b5062000195620005b6565b604051620001a491906200126e565b60405180910390f35b348015620001ba57600080fd5b50620001c562000646565b604051620001d49190620012b7565b60405180910390f35b620001fb6004803603810190620001f59190620010f4565b6200066f565b005b3480156200020a57600080fd5b5062000229600480360381019062000223919062001312565b62000a14565b005b3480156200023857600080fd5b506200024362000b12565b005b6200026360048036038101906200025d91906200138a565b62000b4e565b005b3480156200027257600080fd5b506200029160048036038101906200028b919062001533565b62000da1565b005b348015620002a057600080fd5b50620002bf6004803603810190620002b99190620015cd565b62000e8e565b005b6060600080600090505b600280549050811015620003ba578360028281548110620002f157620002f0620015ff565b5b9060005260206000200160009054906101000a900473ffffffffffffffffffffffffffffffffffffffff1673ffffffffffffffffffffffffffffffffffffffff166370f6e4cf6040518163ffffffff1660e01b8152600401602060405180830381865afa15801562000367573d6000803e3d6000fd5b505050506040513d601f19601f820116820180604052508101906200038d919062001645565b10620003a4578180620003a090620016a6565b9250505b8080620003b190620016a6565b915050620002cb565b5060008167ffffffffffffffff811115620003da57620003d9620013ec565b5b604051908082528060200260200182016040528015620004095781602001602082028036833780820191505090505b5090506000805b60028054905081101562000592578560028281548110620004365762000435620015ff565b5b9060005260206000200160009054906101000a900473ffffffffffffffffffffffffffffffffffffffff1673ffffffffffffffffffffffffffffffffffffffff166370f6e4cf6040518163ffffffff1660e01b8152600401602060405180830381865afa158015620004ac573d6000803e3d6000fd5b505050506040513d601f19601f82011682018060405250810190620004d2919062001645565b11156200057c5760028181548110620004f057620004ef620015ff565b5b9060005260206000200160009054906101000a900473ffffffffffffffffffffffffffffffffffffffff16838381518110620005315762000530620015ff565b5b602002602001019073ffffffffffffffffffffffffffffffffffffffff16908173ffffffffffffffffffffffffffffffffffffffff168152505081806200057890620016a6565b9250505b80806200058990620016a6565b91505062000410565b50819350505050919050565b620005a862000f18565b620005b4600062000f9d565b565b606060028054806020026020016040519081016040528092919081815260200182805480156200063c57602002820191906000526020600020905b8160009054906101000a900473ffffffffffffffffffffffffffffffffffffffff1673ffffffffffffffffffffffffffffffffffffffff1681526020019060010190808311620005f1575b5050505050905090565b60008060009054906101000a900473ffffffffffffffffffffffffffffffffffffffff16905090565b6200067962000646565b73ffffffffffffffffffffffffffffffffffffffff163373ffffffffffffffffffffffffffffffffffffffff1603620006e9576040517f08c379a0000000000000000000000000000000000000000000000000000000008152600401620006e0906200177a565b60405180910390fd5b600280549050811062000733576040517f08c379a00000000000000000000000000000000000000000000000000000000081526004016200072a90620017ec565b60405180910390fd5b6000600282815481106200074c576200074b620015ff565b5b9060005260206000200160009054906101000a900473ffffffffffffffffffffffffffffffffffffffff1690508073ffffffffffffffffffffffffffffffffffffffff1663660e16c36040518163ffffffff1660e01b8152600401602060405180830381865afa158015620007c5573d6000803e3d6000fd5b505050506040513d601f19601f82011682018060405250810190620007eb919062001645565b34146200082f576040517f08c379a000000000000000000000000000000000000000000000000000000000815260040162000826906200185e565b60405180910390fd5b60008290505b600160028054905062000849919062001880565b81101562000916576002600182620008629190620018bb565b81548110620008765762000875620015ff565b5b9060005260206000200160009054906101000a900473ffffffffffffffffffffffffffffffffffffffff1660028281548110620008b857620008b7620015ff565b5b9060005260206000200160006101000a81548173ffffffffffffffffffffffffffffffffffffffff021916908373ffffffffffffffffffffffffffffffffffffffff16021790555080806200090d90620016a6565b91505062000835565b5060028054806200092c576200092b620018f6565b5b6001900381819060005260206000200160006101000a81549073ffffffffffffffffffffffffffffffffffffffff021916905590557fc07cdfac9851911af3b83dac3881442b8f2f0c9cf7eeb09df8b24f8c3c1eeefa8173ffffffffffffffffffffffffffffffffffffffff166317d7de7c6040518163ffffffff1660e01b8152600401600060405180830381865afa158015620009ce573d6000803e3d6000fd5b505050506040513d6000823e3d601f19601f82011682018060405250810190620009f99190620019cf565b60405162000a08919062001a6c565b60405180910390a15050565b600280549050821062000a5e576040517f08c379a000000000000000000000000000000000000000000000000000000000815260040162000a5590620017ec565b60405180910390fd5b6002828154811062000a755762000a74620015ff565b5b9060005260206000200160009054906101000a900473ffffffffffffffffffffffffffffffffffffffff1673ffffffffffffffffffffffffffffffffffffffff16636ef1f2b5826040518263ffffffff1660e01b815260040162000ada919062001ac9565b600060405180830381600087803b15801562000af557600080fd5b505af115801562000b0a573d6000803e3d6000fd5b505050505050565b7f55b48850dc00cfb77b6c576f6e81e89ec9671ebe9032b94db6f8beb590241889600160405162000b44919062001bef565b60405180910390a1565b62000b5862000f18565b60008190508073ffffffffffffffffffffffffffffffffffffffff1663660e16c36040518163ffffffff1660e01b8152600401602060405180830381865afa15801562000ba9573d6000803e3d6000fd5b505050506040513d601f19601f8201168201806040525081019062000bcf919062001645565b47101562000c14576040517f08c379a000000000000000000000000000000000000000000000000000000000815260040162000c0b9062001c89565b60405180910390fd5b60008373ffffffffffffffffffffffffffffffffffffffff168273ffffffffffffffffffffffffffffffffffffffff1663660e16c36040518163ffffffff1660e01b8152600401602060405180830381865afa15801562000c79573d6000803e3d6000fd5b505050506040513d601f19601f8201168201806040525081019062000c9f919062001645565b60405162000cad9062001ce0565b60006040518083038185875af1925050503d806000811462000cec576040519150601f19603f3d011682016040523d82523d6000602084013e62000cf1565b606091505b505090508062000d38576040517f08c379a000000000000000000000000000000000000000000000000000000000815260040162000d2f9062001d47565b60405180910390fd5b6002829080600181540180825580915050600190039060005260206000200160009091909190916101000a81548173ffffffffffffffffffffffffffffffffffffffff021916908373ffffffffffffffffffffffffffffffffffffffff16021790555050505050565b62000dab62000f18565b600083838360405162000dbe9062001069565b62000dcc9392919062001d69565b604051809103906000f08015801562000de9573d6000803e3d6000fd5b5090506002819080600181540180825580915050600190039060005260206000200160009091909190916101000a81548173ffffffffffffffffffffffffffffffffffffffff021916908373ffffffffffffffffffffffffffffffffffffffff1602179055507f69909596ede9634a785f75450042681aa4b64c13ddab6e90b72b200e5368bb1c8460405162000e80919062001a6c565b60405180910390a150505050565b62000e9862000f18565b600073ffffffffffffffffffffffffffffffffffffffff168173ffffffffffffffffffffffffffffffffffffffff160362000f0a576040517f08c379a000000000000000000000000000000000000000000000000000000000815260040162000f019062001e2a565b60405180910390fd5b62000f158162000f9d565b50565b62000f2262001061565b73ffffffffffffffffffffffffffffffffffffffff1662000f4262000646565b73ffffffffffffffffffffffffffffffffffffffff161462000f9b576040517f08c379a000000000000000000000000000000000000000000000000000000000815260040162000f929062001e9c565b60405180910390fd5b565b60008060009054906101000a900473ffffffffffffffffffffffffffffffffffffffff169050816000806101000a81548173ffffffffffffffffffffffffffffffffffffffff021916908373ffffffffffffffffffffffffffffffffffffffff1602179055508173ffffffffffffffffffffffffffffffffffffffff168173ffffffffffffffffffffffffffffffffffffffff167f8be0079c531659141344cd1fd0a4f28419497f9722a3daafe3b4186f6b6457e060405160405180910390a35050565b600033905090565b610cd88062001ebf83390190565b6000819050919050565b6200108c8162001077565b82525050565b6000602082019050620010a9600083018462001081565b92915050565b6000604051905090565b600080fd5b600080fd5b620010ce8162001077565b8114620010da57600080fd5b50565b600081359050620010ee81620010c3565b92915050565b6000602082840312156200110d576200110c620010b9565b5b60006200111d84828501620010dd565b91505092915050565b600081519050919050565b600082825260208201905092915050565b6000819050602082019050919050565b600073ffffffffffffffffffffffffffffffffffffffff82169050919050565b6000819050919050565b60006200119d62001197620011918462001152565b62001172565b62001152565b9050919050565b6000620011b1826200117c565b9050919050565b6000620011c582620011a4565b9050919050565b620011d781620011b8565b82525050565b6000620011eb8383620011cc565b60208301905092915050565b6000602082019050919050565b6000620012118262001126565b6200121d818562001131565b93506200122a8362001142565b8060005b8381101562001261578151620012458882620011dd565b97506200125283620011f7565b9250506001810190506200122e565b5085935050505092915050565b600060208201905081810360008301526200128a818462001204565b905092915050565b60006200129f8262001152565b9050919050565b620012b18162001292565b82525050565b6000602082019050620012ce6000830184620012a6565b92915050565b600060ff82169050919050565b620012ec81620012d4565b8114620012f857600080fd5b50565b6000813590506200130c81620012e1565b92915050565b600080604083850312156200132c576200132b620010b9565b5b60006200133c85828601620010dd565b92505060206200134f85828601620012fb565b9150509250929050565b620013648162001292565b81146200137057600080fd5b50565b600081359050620013848162001359565b92915050565b60008060408385031215620013a457620013a3620010b9565b5b6000620013b48582860162001373565b9250506020620013c78582860162001373565b9150509250929050565b600080fd5b600080fd5b6000601f19601f8301169050919050565b7f4e487b7100000000000000000000000000000000000000000000000000000000600052604160045260246000fd5b6200142682620013db565b810181811067ffffffffffffffff82111715620014485762001447620013ec565b5b80604052505050565b60006200145d620010af565b90506200146b82826200141b565b919050565b600067ffffffffffffffff8211156200148e576200148d620013ec565b5b6200149982620013db565b9050602081019050919050565b82818337600083830152505050565b6000620014cc620014c68462001470565b62001451565b905082815260208101848484011115620014eb57620014ea620013d6565b5b620014f8848285620014a6565b509392505050565b600082601f830112620015185762001517620013d1565b5b81356200152a848260208601620014b5565b91505092915050565b6000806000606084860312156200154f576200154e620010b9565b5b600084013567ffffffffffffffff81111562001570576200156f620010be565b5b6200157e8682870162001500565b935050602084013567ffffffffffffffff811115620015a257620015a1620010be565b5b620015b08682870162001500565b9250506040620015c386828701620010dd565b9150509250925092565b600060208284031215620015e657620015e5620010b9565b5b6000620015f68482850162001373565b91505092915050565b7f4e487b7100000000000000000000000000000000000000000000000000000000600052603260045260246000fd5b6000815190506200163f81620010c3565b92915050565b6000602082840312156200165e576200165d620010b9565b5b60006200166e848285016200162e565b91505092915050565b7f4e487b7100000000000000000000000000000000000000000000000000000000600052601160045260246000fd5b6000620016b38262001077565b91507fffffffffffffffffffffffffffffffffffffffffffffffffffffffffffffffff8203620016e857620016e762001677565b5b600182019050919050565b600082825260208201905092915050565b7f456c206475656e6f206e6f20707565646520656a65637574617220657374612060008201527f66756e63696f6e00000000000000000000000000000000000000000000000000602082015250565b600062001762602783620016f3565b91506200176f8262001704565b604082019050919050565b60006020820190508181036000830152620017958162001753565b9050919050565b7f496e64696365206e6f20656e636f6e747261646f000000000000000000000000600082015250565b6000620017d4601483620016f3565b9150620017e1826200179c565b602082019050919050565b600060208201905081810360008301526200180781620017c5565b9050919050565b7f466f6e646f7320696e737566696369656e746573000000000000000000000000600082015250565b600062001846601483620016f3565b915062001853826200180e565b602082019050919050565b60006020820190508181036000830152620018798162001837565b9050919050565b60006200188d8262001077565b91506200189a8362001077565b9250828203905081811115620018b557620018b462001677565b5b92915050565b6000620018c88262001077565b9150620018d58362001077565b9250828201905080821115620018f057620018ef62001677565b5b92915050565b7f4e487b7100000000000000000000000000000000000000000000000000000000600052603160045260246000fd5b60005b838110156200194557808201518184015260208101905062001928565b60008484015250505050565b600062001968620019628462001470565b62001451565b905082815260208101848484011115620019875762001986620013d6565b5b6200199484828562001925565b509392505050565b600082601f830112620019b457620019b3620013d1565b5b8151620019c684826020860162001951565b91505092915050565b600060208284031215620019e857620019e7620010b9565b5b600082015167ffffffffffffffff81111562001a095762001a08620010be565b5b62001a17848285016200199c565b91505092915050565b600081519050919050565b600062001a388262001a20565b62001a448185620016f3565b935062001a5681856020860162001925565b62001a6181620013db565b840191505092915050565b6000602082019050818103600083015262001a88818462001a2b565b905092915050565b600062001ab162001aab62001aa584620012d4565b62001172565b62001077565b9050919050565b62001ac38162001a90565b82525050565b600060208201905062001ae0600083018462001ab8565b92915050565b7f4e487b7100000000000000000000000000000000000000000000000000000000600052602260045260246000fd5b6000600282049050600182168062001b2e57607f821691505b60208210810362001b445762001b4362001ae6565b5b50919050565b60008190508160005260206000209050919050565b6000815462001b6e8162001b15565b62001b7a8186620016f3565b9450600182166000811462001b98576001811462001baf5762001be6565b60ff19831686528115156020028601935062001be6565b62001bba8562001b4a565b60005b8381101562001bde5781548189015260018201915060208101905062001bbd565b808801955050505b50505092915050565b6000602082019050818103600083015262001c0b818462001b5f565b905092915050565b7f456c2065717569706f206e6f207469656e6520666f6e646f732073756669636960008201527f656e746573000000000000000000000000000000000000000000000000000000602082015250565b600062001c71602583620016f3565b915062001c7e8262001c13565b604082019050919050565b6000602082019050818103600083015262001ca48162001c62565b9050919050565b600081905092915050565b50565b600062001cc860008362001cab565b915062001cd58262001cb6565b600082019050919050565b600062001ced8262001cb9565b9150819050919050565b7f4572726f7220656e206c61207472616e73666572656e63696100000000000000600082015250565b600062001d2f601983620016f3565b915062001d3c8262001cf7565b602082019050919050565b6000602082019050818103600083015262001d628162001d20565b9050919050565b6000606082019050818103600083015262001d85818662001a2b565b9050818103602083015262001d9b818562001a2b565b905062001dac604083018462001081565b949350505050565b7f4f776e61626c653a206e6577206f776e657220697320746865207a65726f206160008201527f6464726573730000000000000000000000000000000000000000000000000000602082015250565b600062001e12602683620016f3565b915062001e1f8262001db4565b604082019050919050565b6000602082019050818103600083015262001e458162001e03565b9050919050565b7f4f776e61626c653a2063616c6c6572206973206e6f7420746865206f776e6572600082015250565b600062001e84602083620016f3565b915062001e918262001e4c565b602082019050919050565b6000602082019050818103600083015262001eb78162001e75565b905091905056fe60806040523480156200001157600080fd5b5060405162000cd838038062000cd8833981810160405281019062000037919062000239565b826000908162000048919062000514565b5081600190816200005a919062000514565b5080600481905550505050620005fb565b6000604051905090565b600080fd5b600080fd5b600080fd5b600080fd5b6000601f19601f8301169050919050565b7f4e487b7100000000000000000000000000000000000000000000000000000000600052604160045260246000fd5b620000d48262000089565b810181811067ffffffffffffffff82111715620000f657620000f56200009a565b5b80604052505050565b60006200010b6200006b565b9050620001198282620000c9565b919050565b600067ffffffffffffffff8211156200013c576200013b6200009a565b5b620001478262000089565b9050602081019050919050565b60005b838110156200017457808201518184015260208101905062000157565b60008484015250505050565b60006200019762000191846200011e565b620000ff565b905082815260208101848484011115620001b657620001b562000084565b5b620001c384828562000154565b509392505050565b600082601f830112620001e357620001e26200007f565b5b8151620001f584826020860162000180565b91505092915050565b6000819050919050565b6200021381620001fe565b81146200021f57600080fd5b50565b600081519050620002338162000208565b92915050565b60008060006060848603121562000255576200025462000075565b5b600084015167ffffffffffffffff8111156200027657620002756200007a565b5b6200028486828701620001cb565b935050602084015167ffffffffffffffff811115620002a857620002a76200007a565b5b620002b686828701620001cb565b9250506040620002c98682870162000222565b9150509250925092565b600081519050919050565b7f4e487b7100000000000000000000000000000000000000000000000000000000600052602260045260246000fd5b600060028204905060018216806200032657607f821691505b6020821081036200033c576200033b620002de565b5b50919050565b60008190508160005260206000209050919050565b60006020601f8301049050919050565b600082821b905092915050565b600060088302620003a67fffffffffffffffffffffffffffffffffffffffffffffffffffffffffffffffff8262000367565b620003b2868362000367565b95508019841693508086168417925050509392505050565b6000819050919050565b6000620003f5620003ef620003e984620001fe565b620003ca565b620001fe565b9050919050565b6000819050919050565b6200041183620003d4565b620004296200042082620003fc565b84845462000374565b825550505050565b600090565b6200044062000431565b6200044d81848462000406565b505050565b5b8181101562000475576200046960008262000436565b60018101905062000453565b5050565b601f821115620004c4576200048e8162000342565b620004998462000357565b81016020851015620004a9578190505b620004c1620004b88562000357565b83018262000452565b50505b505050565b600082821c905092915050565b6000620004e960001984600802620004c9565b1980831691505092915050565b6000620005048383620004d6565b9150826002028217905092915050565b6200051f82620002d3565b67ffffffffffffffff8111156200053b576200053a6200009a565b5b6200054782546200030d565b6200055482828562000479565b600060209050601f8311600181146200058c576000841562000577578287015190505b620005838582620004f6565b865550620005f3565b601f1984166200059c8662000342565b60005b82811015620005c6578489015182556001820191506020850194506020810190506200059f565b86831015620005e65784890151620005e2601f891682620004d6565b8355505b6001600288020188555050505b505050505050565b6106cd806200060b6000396000f3fe608060405234801561001057600080fd5b50600436106100625760003560e01c806317d7de7c14610067578063660e16c3146100855780636ef1f2b5146100a357806370f6e4cf146100bf5780638cbdd6bd146100dd5780639f934c70146100fb575b600080fd5b61006f610105565b60405161007c9190610369565b60405180910390f35b61008d610197565b60405161009a91906103a4565b60405180910390f35b6100bd60048036038101906100b891906103f0565b6101a1565b005b6100c761020c565b6040516100d491906103a4565b60405180910390f35b6100e5610216565b6040516100f291906104db565b60405180910390f35b61010361026e565b005b6060600080546101149061052c565b80601f01602080910402602001604051908101604052809291908181526020018280546101409061052c565b801561018d5780601f106101625761010080835404028352916020019161018d565b820191906000526020600020905b81548152906001019060200180831161017057829003601f168201915b5050505050905090565b6000600454905090565b60028190806001815401808255809150506001900390600052602060002001600090919091909150556101d261026e565b7f0bd230340c351eece29a60e9c887f5d316a044b08a11e41b51b9d8d2252ceb628160405161020191906103a4565b60405180910390a150565b6000600354905090565b6060600280548060200260200160405190810160405280929190818152602001828054801561026457602002820191906000526020600020905b815481526020019060010190808311610250575b5050505050905090565b6000805b6002805490508110156102be57600281815481106102935761029261055d565b5b9060005260206000200154826102a991906105bb565b915080806102b6906105ef565b915050610272565b50600280549050816102d09190610666565b60038190555050565b600081519050919050565b600082825260208201905092915050565b60005b838110156103135780820151818401526020810190506102f8565b60008484015250505050565b6000601f19601f8301169050919050565b600061033b826102d9565b61034581856102e4565b93506103558185602086016102f5565b61035e8161031f565b840191505092915050565b600060208201905081810360008301526103838184610330565b905092915050565b6000819050919050565b61039e8161038b565b82525050565b60006020820190506103b96000830184610395565b92915050565b600080fd5b6103cd8161038b565b81146103d857600080fd5b50565b6000813590506103ea816103c4565b92915050565b600060208284031215610406576104056103bf565b5b6000610414848285016103db565b91505092915050565b600081519050919050565b600082825260208201905092915050565b6000819050602082019050919050565b6104528161038b565b82525050565b60006104648383610449565b60208301905092915050565b6000602082019050919050565b60006104888261041d565b6104928185610428565b935061049d83610439565b8060005b838110156104ce5781516104b58882610458565b97506104c083610470565b9250506001810190506104a1565b5085935050505092915050565b600060208201905081810360008301526104f5818461047d565b905092915050565b7f4e487b7100000000000000000000000000000000000000000000000000000000600052602260045260246000fd5b6000600282049050600182168061054457607f821691505b602082108103610557576105566104fd565b5b50919050565b7f4e487b7100000000000000000000000000000000000000000000000000000000600052603260045260246000fd5b7f4e487b7100000000000000000000000000000000000000000000000000000000600052601160045260246000fd5b60006105c68261038b565b91506105d18361038b565b92508282019050808211156105e9576105e861058c565b5b92915050565b60006105fa8261038b565b91507fffffffffffffffffffffffffffffffffffffffffffffffffffffffffffffffff820361062c5761062b61058c565b5b600182019050919050565b7f4e487b7100000000000000000000000000000000000000000000000000000000600052601260045260246000fd5b60006106718261038b565b915061067c8361038b565b92508261068c5761068b610637565b5b82820490509291505056fea26469706673582212200e565ba6863e73dd16dd2d9061d825362ca286e98eb8fd4d876fc01165a8291e64736f6c63430008110033a26469706673582212208e16cf14fcf0eb5a2fab2cc28758dade77c6cd7bf32fd53c0ab0d4e142d9077364736f6c63430008110033",
  "immutableReferences": {},
  "source": "// SPDX-License-Identifier: MIT\npragma solidity ^0.8.17;\n\nimport \"@openzeppelin/contracts/access/Ownable.sol\";\nimport \"./Player.sol\";\n\ncontract Squad is Ownable {\n    string private name;\n    Player[] private players;\n\n    event FundsReceived(uint256 amount);\n    event PlayerAcquired(string playerName);\n    event PlayerSold(string playerName);\n    event PlayerAdded(string playerName);\n    event SquadName(string name);\n\n    modifier notOwner() {\n        require(\n            msg.sender != owner(),\n            \"El dueno no puede ejecutar esta funcion\"\n        );\n        _;\n    }\n\n    receive() external payable {\n        emit FundsReceived(msg.value);\n    }\n\n    fallback() external payable {\n        emit FundsReceived(msg.value);\n    }\n\n    constructor(string memory clubName) {\n        name = clubName;\n    }\n\n    function getTeamName() public {\n        emit SquadName(name);\n    }\n\n    //Toma los params definidos x el constructor de Player.sol\n    function addNewPlayer(\n        string memory _name,\n        string memory _position,\n        uint256 _price\n    ) public onlyOwner {\n        Player newPlayer = new Player(_name, _position, _price);\n        players.push(newPlayer);\n        emit PlayerAdded(_name);\n    }\n\n    //Recibimos como param 1- Address del vendedor y 2- Address del player\n    function buyPlayer(address sellerAddress, address newPlayerAddress)\n        public\n        payable\n        onlyOwner\n    {\n        Player newPlayer = Player(newPlayerAddress);\n        require(\n            address(this).balance >= newPlayer.getMarketPrice(),\n            \"El equipo no tiene fondos suficientes\"\n        );\n        (bool sent, ) = sellerAddress.call{value: newPlayer.getMarketPrice()}(\n            \"\"\n        );\n\n        require(sent, \"Error en la transferencia\");\n        players.push(newPlayer);\n        //emit PlayerAcquired(newPlayer.getMarketPrice());\n    }\n\n    //Se recibe el index del array (en este caso del 0 al 10 por ej),\n    //Del 0 (Arquero) al 10 (delantero),\n    //Esta funcion no la podra ejecutar el Owner\n    function sellPlayer(uint256 playerIndex) public payable notOwner {\n        //1ro: validar q el indice que se reciba exista (sea < al tamano del [])\n        require(playerIndex < players.length, \"Indice no encontrado\");\n        Player playerToSell = players[playerIndex];\n\n        //Validar que el value de la transaccion es igual al valor del jugador\n        require(\n            msg.value == playerToSell.getMarketPrice(),\n            \"Fondos insuficientes\"\n        );\n        //El indice mayor sera el length -1 (por la posicion cero)\n        //Por ejemplo quiero eliminar el jugador 5 - seria el index 6\n        for (uint256 i = playerIndex; i < players.length - 1; i++) {\n            //se correra el elemento hacia la ultima posicion del array\n            players[i] = players[i + 1];\n        }\n        //Eliminar el ultimo elemento del array\n        players.pop();\n\n        emit PlayerSold(playerToSell.getName());\n    }\n\n    //De acuerdo a un rating minimo, se debe devolver los jugadores de ahi en +\n    //Los elementos que obtenga, los retornara y los agrupara en un []\n    function getDreamTeam(uint256 baseLineRate)\n        public\n        view\n        returns (Player[] memory)\n    {\n        //1ro debemos establecer un contador\n        uint256 dTeamCount;\n        //Despues 2 ciclos FOR\n        //El 1er ciclo, devolvera cuantos elementos tendra el nuevo []\n        for (uint256 i = 0; i < players.length; i++) {\n            if (players[i].getAverageRating() >= baseLineRate) {\n                dTeamCount++;\n            }\n        }\n\n        //Creo un array con i elementos\n        Player[] memory dTeam = new Player[](dTeamCount);\n\n        //El 2do for es para agregar esos jugadores al nuevo []\n        //Creo una nueva VAR auxiliar \"j\"\n        uint256 j = 0;\n\n        for (uint256 i = 0; i < players.length; i++) {\n            if (players[i].getAverageRating() > baseLineRate) {\n                //al nuevo array se agreguen los players q cumplan las condiciones\n                dTeam[j] = players[i];\n                j++;\n            }\n        }\n\n        return dTeam;\n    }\n\n    function getPlayers() public view returns (Player[] memory) {\n        return players;\n    }\n\n    function addRatingToPlayer(uint256 index, uint8 rate) public {\n        require(index < players.length, \"Indice no encontrado\");\n        players[index].addNewRate(rate);\n    }\n}\n",
  "sourcePath": "D:\\CODER Programacion\\2022\\Solidity\\footballTeam\\contracts\\Squad.sol",
  "compiler": {
    "name": "solc",
    "version": "0.8.17+commit.8df45f5f.Emscripten.clang"
  },
  "schemaVersion": "3.4.10",
  "updatedAt": "2022-11-19T15:55:07.202Z",
  "networkType": "ethereum",
  "devdoc": {
    "kind": "dev",
    "methods": {
      "owner()": {
        "details": "Returns the address of the current owner."
      },
      "renounceOwnership()": {
        "details": "Leaves the contract without owner. It will not be possible to call `onlyOwner` functions anymore. Can only be called by the current owner. NOTE: Renouncing ownership will leave the contract without an owner, thereby removing any functionality that is only available to the owner."
      },
      "transferOwnership(address)": {
        "details": "Transfers ownership of the contract to a new account (`newOwner`). Can only be called by the current owner."
      }
    },
    "version": 1
  },
  "userdoc": {
    "kind": "user",
    "methods": {},
    "version": 1
  }
}